:020000040000fa
:080000001015040000000000cf
:020000040000fa
:102a20008f0122000e7f24000e01880000000000ac
:102a30000c00070040d22000110020001100070008
:102a4000000020000000e000020032000000020050
:102a500000000000c0c80200000000000040da00d2
:102a60000000fe004440a900202320000000e000f8
:102a70000300320000002000a00188004440a800ac
:102a80000000060091018800800078000000eb0043
:102a900015003700e280400032a0b4009101ba0076
:102aa000e280400032a0b4009102ba00e28040000f
:102ab00032a0b4000002eb00472bde00f507b200a5
:102ac000602ce10004003a000059eb008301e900aa
:102ad000fdff3e00040037006128e10001003200e4
:102ae0000082eb00040007001101ba000200e000c0
:102af000e8ff3a00000006003159ba008301e900fe
:102b00000c0032002159ba008301e90008003200ac
:102b10000400e00003003a00e280400032a0b4006c
:102b2000f5ff370011d9ba008301e900faff3a0036
:102b30008100e800e180400032a0b40000000600ff
:102b4000f6fb04000000000060f404000000000038
:102b500058f404000000000050f4040000000000dd
:102b6000d2f50400000000000afb04000000000091
:102b7000aefa040000000000800078001104b100eb
:102b8000030035009101b10001003c000050a0009d
:102b900000000600800078001106b1000300350037
:102ba0009101b10001003c000050a10000000600ae
:102bb0000a00fa0080017800e20f500028003e0071
:102bc00060dd8000e10f500008003200802320000b
:102bd0000000e0000500320004232000252320002f
:102be00046232000800178000400370004222000e2
:102bf000252220004622200083222000144090003d
:102c00000004e000040035008009eb00144090004f
:102c10000074a00010429800154090000028a30006
:102c200003003a00154090000024a0009042980054
:102c30008001eb0007003700154090000008a3005a
:102c4000fdff320063c078000000fb00000b78003d
:102c50008301e800828f5100f7ff3a000800370037
:102c600030002000b0bf9f00c3bf9f00d1bf9f00b6
:102c7000e2bf9f006a80570000c0da006fb997007a
:102c8000020078000080fa0000000600020ab90085
:102c9000001bb9000200b80081004200810043001f
:102ca000000006006022b800060220000000d000ec
:102cb0008180d2000482d2008582d2000000a00070
:102cc0000202520083825a000300310002024200d5
:102cd00083824a000000a1000603e900f3ff3a00e6
:102ce00000000600efff07000400be000000060021
:102cf000811f78000100e00002003d00600010002c
:102d0000e08018000300e00002003d0060011100b7
:102d1000e0811900f3ff07004f00e00002003b00d4
:102d200060001000e080180000000600839f68002b
:102d30000100e00002003d0060001000e08018008b
:102d40000300e00002003d0060011100e081190075
:102d5000d4ff07004f00e00002003b0060001000bd
:102d6000e0801800000006004f89de008201780034
:102d7000be0237002800fa00889fbe008a9fbe006e
:102d80008c9fbe0003866b00ef0207006400e10029
:102d9000440032006408e1004a0032006100e100b2
:102da000460032006108e10049003200ec064700ad
:102db0006000b8003d02be003d03be00f48657002f
:102dc0006011b8003d04be003d05be007d0320003b
:102dd0000b0037000000a0008d06e9001300320050
:102de0000402420085824a0006034b0087834b00a1
:102df00000004000818048000201490083814900b1
:102e00000802520089825a000a035b008b835b0030
:102e1000f0ff3b000802420089824a000a034b008f
:102e20008b834b008d06e900edff3a00848272002f
:102e300086827200f707b2008782720001003200ba
:102e4000150020001e0490003e0b90000603540065
:102e5000e63fb0000368a300070032000000a700af
:102e60000500a0008301d1000281d3008180d3003e
:102e70000080d3000603e8008301d1000281d30063
:102e80008180d3000080d3000002eb000482d200d6
:102e9000c602070003f0a1000cf0a70003f0a00099
:102ea000bd023700640247006408e100b702320047
:102eb0003400be003401be00f6ff37006108e100b7
:102ec000b20232006011b8006000b800f1ff3700b4
:102ed00003ff270002002000fbff37001e00fa005e
:102ee000889fbe008a9fbe008c9fbe000404be0067
:102ef0000605be00009fbe000297be00d702070075
:102f0000040678000800be000a01be00d3020700d4
:102f10008406780004002000e202070005003a0061
:102f20008d02b30014002000de02070001003a0009
:102f3000f8866e000802be000a03be00f900070012
:102f40003e00be002e01be00930232000bf0a7002f
:102f50000de0a00003f0a7000df0a0000d08a300f5
:102f6000d6003a003e02be002e03be0007f0a100cc
:102f700037079800eb0007000df0a600cf003200e5
:102f800001003c000dd0a0008d4f76007f02330081
:102f90006000b8006011b8006260e100c90039004b
:102fa000d1003e000d28a300d2003a000df8a30086
:102fb000080032000d58a300d80032003e02be00c7
:102fc0002e03be00d70007003e00be002e01be004b
:102fd000c00032003e00be002e01be006a02470063
:102fe000f4020700009fbe000297be000df0a7008c
:102ff0000d30a6000df0a1006d07980067fe2300bc
:10300000e6092a00f5672600d4bc23000603070062
:1030100009003d003e00be002e01be00140020004d
:10302000060307005e029000009fbe000297be00ec
:103030000402e900540798005e0090006100b900a6
:1030400049ff070070079800010f9800120f9800c1
:10305000230f98000802be000a03be00bf0007004d
:10306000330107000006be000100e00002003d0041
:1030700060001000e0801800f2ff2700820f50006f
:10308000e08f580083003e000c00be0036ff0700b2
:10309000300f9800410f9800520f9800630f98006e
:1030a0000800be000a01be00210107004007980089
:1030b000f23f2000820f5000e08f580005003c00d6
:1030c00012c02f00f3ff2f00820f5000838f580093
:1030d0000a003d005e0690000c00e0000300320094
:1030e00001003c000201ea00020678006000b8001e
:1030f0006011b80040079800270037000800be00a4
:103100000a01be00411add004522de00f43fb10095
:103110008400b10063020700809fbe00829fbe0052
:103120007e0290008e0a90001e0b9000ae0b900065
:103130008a0007003e0a9000ce0a90005e0b9000c5
:10314000ee0b9000830007004f03be004f02be004d
:10315000809fbe00829fbe000800be000a01be0024
:103160007c0007007e0290008e0a90001e0b9000eb
:10317000ae0b9000790007004f03be004f02be0067
:103180001701070067fe230026e42200a5ef2f00a9
:10319000f49e230071000700809fbe00829fbe0046
:1031a0004e0090006100b900effe070003f0a2009e
:1031b0000802be000a03be0009010700809fbe008e
:1031c000829fbe003e00be002e01be00ce02070060
:1031d0004f03be004f02be00600007004f03be0059
:1031e0004f02be00fe0007005f030700809fbe0085
:1031f000829fbe004d000700ce0690000df0a70094
:103200008d06ea00090037003e00be002e01be0018
:103210003e02be002e03be0050000700009fbe000d
:103220000297be000800be000a01be003e02be00ba
:103230002e03be000d00a700480007000004be00da
:103240000205be008d06d100efff3a006e0290002d
:1032500004e0a600060037000002be000203be0024
:1032600032000700c3fe07000004be000205be00d6
:103270004f03be004f02be00380007000c0278006a
:103280006e020700ee0690000df0a70003f0a2000a
:10329000c1013700ee069000290007002600070054
:1032a0000dd0a7000dc0a0000de0a7000dc0a2002a
:1032b0000dc0a60003002000f2ff37001b0007002e
:1032c000b50137000bf8a300020032001e00070012
:1032d000190007000df8a300af0132000d30a70060
:1032e00003f0a200ac0137000bf8a300f9ff3a008d
:1032f000f7ff37003e02be002e03be0009000700a4
:10330000eeff320001003c000bf0a2000a000700b3
:103310000bf0a600030020009f0137000a00070001
:103320009a013700010007003f02370003ff230026
:103330006000b8000200050003ff2700fcff370013
:10334000200220000100370010022000a0d58800d4
:103350000000060007f0a200a10037002800fa00d4
:10336000889fbe008a9fbe008c9fbe0003866b00b4
:10337000750107000028a30064003a000128a3009b
:1033800067003a000008a30062003a000108a300a9
:1033900065003a001e009000be08900081064000c3
:1033a000ed3fb100f4805700ee019000111ab80013
:1033b0008e099000311bb8009e099000311cb800a6
:1033c000511db800f485570046000700fe0190002b
:1033d0003a0007008b85e8003e0007008e09900048
:1033e00040000700ee019000340007008b85e800e4
:1033f000380007008e099000400007009e099000e9
:103400001b18b800890440000a854800fe0190009e
:10341000340007008b85e80038000700ee019000bb
:10342000300007008e0990001b18b8008904400086
:103430000a8548000a98a30008003a0004024200e6
:1034400085824a0006034b0087834b0008044c002a
:1034500089844c000a054d008d06e90084827200c3
:10346000850273004c3add008502720001003200d3
:1034700015002000443ade001400b2004538de009a
:10348000cb45dd000b007000c540de00cb4ddd00fc
:103490008b8070004549de00cb55dd000b017100cb
:1034a000c551de000d0378004001070003f0a100c4
:1034b0000cf0a70003f0a000370137001b18b8007c
:1034c0008502400006834800e0834b0060044c0006
:1034d000070037001b18b800060340008783480028
:1034e000faff37001b18b800870340000884480023
:1034f000e0844c0060054d00000006001b18b80079
:103500000804400089844800faff37000108a3003e
:103510001e013a005800be005801be00e3ff37000c
:103520000008a30019013a0009047800f9ff3700e8
:103530001400fa00889fbe008a9fbe008c9fbe00c8
:103540000004be000205be00680047000a90be00ed
:103550000890be001c0307000070a7000bf0a1003c
:10356000304320009e02900080825200b0fe2f0067
:103570000028e10011003d00b0fc2f000028e10010
:10358000150034001e0990008e0890007e00900007
:103590000501b0000201d1008180d3000080d3007a
:1035a0008502e800fbff3a000b00e000fa003b0058
:1035b00060001000e0801800f7003700f0ff2f00d7
:1035c000f1ff27000b00e000f3003b0001002800a2
:1035d00000002000f00037006000b800ee00370067
:1035e0002800fa00889fbe008a9fbe008c9fbe0004
:1035f00007067800878669000c003b00030478000a
:103600008704780008f0a10009f0a100840f5000a1
:10361000858f5800860f5900890f5c000300330026
:103620000cf0a20001003a000cf0a100c600070057
:103630006400e1005f003200780147006408e100a7
:10364000610032006c014700748557003200be00f3
:103650001201be003a04be001a05be001e0390000f
:10366000be0a90008503530006003d000004fd00e3
:103670008104fd000205fd008305fd008703ea00cb
:10368000050378000df8a300040032006004140064
:10369000e0841c0060051d00e0851d006022b8006c
:1036a0007d0320000d38e1008006eb000b0039009f
:1036b0004433dd00f300b2008301730039003700aa
:1036c000848272000d027800e10664008b85d100cf
:1036d0000a85d3008984d3000884d3008703e900d6
:1036e000f7ff3b0008004000898048000a014900bc
:1036f0008b81490004003b0060001000e08018004e
:1037000060011900e08119000358a300090032008c
:103710008d82720084827200610260008301d10098
:103720000281d3008180d3000080d3000603e8002b
:103730001b0037000348a30017003a000600e00012
:10374000170034000603e9000d00a3000000480044
:103750008180480002014900838149000348a30099
:103760000f003a000600e000090034000603e900fb
:103770000000400081804800020149008381490027
:1037800001003a000003eb000348a300f5ff3200fc
:103790006022b800020037008482720061826600f5
:1037a0008200070003f0a1000cf0a70003f0a000c6
:1037b00079003700640147006408e10002003a0024
:1037c0000df8a30071003a003200be001201be00e5
:1037d000710037001400fa00889fbe008a9fbe0067
:1037e0008c9fbe000004be000205be0068004700ba
:1037f0000a90be000890be00730207000070a70088
:103800000bf0a1000bf8a30016003a009e029000f6
:103810003043200080825200b0fe2f000028e100db
:103820000d003c00b0fc2f000028e1000d0034002a
:103830001e0990008e0890007e0090000501b000e7
:103840000201d1008180d3000080d3008502e8000e
:10385000fbff3a0050003700010028000000200064
:103860004d0037006000b8004b003700889fbe0055
:10387000830478000300e0002c00350003003c00c6
:1038800000827000040271002600320036432000de
:10389000c50020008383cf000a0039000541b10034
:1038a0008283cf00070039000541b1008183cf003a
:1038b000040039000541b1008083cf0001003900c8
:1038c0000541b10085c353006022b80012003200e8
:1038d0000a003b0084827200610260008301d10013
:1038e0000281d3008180d3000080d3000603e8006a
:1038f0008743e800f7ff3a00070037000000400068
:103900008180480002014900838149000603e900e3
:103910008743e900f9ff3a002400070009f0a700f7
:1039200003f0a0004f04be0000000600600010007d
:10393000e080180060011900e0811900d3ff3b000e
:10394000033e2c00f7ff3700680447000294be00d6
:103950000094be00fc0447008694be008494be0020
:103960000900780018020700080078001602070016
:1039700099007800814f70000b003b000800be00ea
:10398000380207004f00b10003003700f3ff2700a3
:10399000f2ff2f006110b9004f06be004f05be00b8
:1039a0004f04be000080fa0000000600180020004e
:1039b00057002000080453000d003d0006002000c1
:1039c00097fc2f000740e1001e0034008482720043
:1039d000610260008301d1000281d3008180d300a5
:1039e0000080d3000804e800f8ff3a0047002000f8
:1039f0006104600005047400040464000d003200da
:103a000061004000e080480060014900e081490019
:103a100003b8a500070032000603e8006538e1009e
:103a200004003a008301d1000281d3008180d300d9
:103a30000080d300f87f20000830e100030035004b
:103a4000080378006000b8006011b8004433dd005e
:103a5000f300b200830173000000060005ff270099
:103a600005826100070032000428e10001003200f5
:103a7000240005000600070001003a00440005008c
:103a80000408050002000700f9ff3a0014000500d1
:103a90006f826100810270008502710085027200f0
:103aa000000006001400fa00889fbe008a9fbe0036
:103ab0008c9fbe0004067800e80247008292be0098
:103ac0008092be0005007800bf0107006200e1009f
:103ad00033003a006000b8006011b8001e03900087
:103ae0000c035300f63fb100220035004b032000c9
:103af0000b30e1002a003d00fb012000faff2f00ff
:103b00006154b9006c0147008b05d1000a85d300d0
:103b10008984d3000884d3000603e900faff3b0040
:103b20003200be001201be00000264008182640007
:103b300002036500838365000502720006027200bd
:103b400007027200160032000884ea008984ea0045
:103b50000a85ea008b85ea00000064008180640029
:103b600002016500838165006022b8001e03900099
:103b70008eff0700de03900007f0a70003f0a0000f
:103b80000082eb000400e0008e0290004f06be00b1
:103b90004f05be004f04be000080fa000000060082
:103ba00064014700040020003200be001201be0084
:103bb000f4ff37001400fa00889fbe008a9fbe0001
:103bc0008c9fbe00040678000004be000205be0003
:103bd000680047000a90be000890be007a01070006
:103be0006200e1000800be000a01be0004002000df
:103bf0000b003a001e029000e43fb1006e009000fe
:103c0000fe0090000e0990009e099000f300b200a3
:103c100005fe2300858171000bf0a70003f0a000d2
:103c2000040e78005cff37008f1fd1009b01070056
:103c30008f87e9000000e000000006001400fa0091
:103c4000889fbe008a9fbe008c9fbe00040678003d
:103c50000004be000205be00680047000a90be00d6
:103c60000890be00580107006200e1000800be0095
:103c70000a01be0023003a006e009000fe00900092
:103c80000e0990009e0990009e0290008502460059
:103c9000e47f20000428e10005003c00d4fc2f0054
:103ca0000428e10008003d00050020000100370065
:103cb000f57f200020022000a0d588006000b80019
:103cc0006011b8000a00370014002000048252007e
:103cd00007003d008301d1000281d3008180d30021
:103ce0000080d3000402e800faff3a00050020003b
:103cf000c42add00f300b200858171000bf0a7003b
:103d000003f0a00024ff37000800fa00889fbe00df
:103d10008a9fbe008c9fbe0050ff07006420e10018
:103d20001dff3e006220e1000300320087003500e5
:103d300003f8a30018ff320003f8a30087003a003d
:103d40000e0278009bff07001e0678000004be00ec
:103d50000205be007a0007007efd0700009fbe003e
:103d60000297be000800be000a01be0067fe2300e5
:103d7000e6092a00f5672600d4bc2300700107007d
:103d8000090034003e00be002e01be006c0007009a
:103d900070fd0700009fbe000297be000800be0035
:103da0000a01be00030037000c06e9003e00be0019
:103db0002e01be006200070068fd070060000700da
:103dc00007fe07000002be000203be003e00be0068
:103dd0002e01be00e7fb07000004be000205be0086
:103de0000002be000203be005cfd0700009fbe0093
:103df0000297be0017042c0006582d0075b624004b
:103e0000f4e02c00f6fd07003e02be002e03be00cb
:103e100052fd0700370724003608280055a12f005f
:103e2000e4672200eefd07003e02be002e03be0046
:103e30004afd070087082c00e6bf2000d5c02900f6
:103e400074072900e6fd0700809fbe00829fbe0028
:103e500097fe2b005641240065352b0094d22b0091
:103e60003e00be002e01be003cfd070007032400fb
:103e7000a624260065012200d4fe2a00d8fd0700f2
:103e80003e02be002e03be0034fd070007052c00d5
:103e9000f67f2000352b2100a4592b00d0fd070010
:103ea0003e02be002e03be002cfd07004f03be00e5
:103eb0004f02be00affb0700009fbe000297be008e
:103ec0000802be000a03be0024fd07000802be006f
:103ed0000a03be00c2fd07000004be000205be00ca
:103ee0006160b900a0fb0700009fbe000297be0002
:103ef000b7f22b0006012d0015c6250084ca20004c
:103f000016fd07000802be000a03be00b4fd07004c
:103f10000004be000205be003e00be002e01be0031
:103f200067fe2300060023006022b8000bfd070097
:103f30000802be000a03be00a9fd070096fe370076
:103f400007fe23006022b8000600050003ff2f00d3
:103f5000020020006000b8008ffe37001002200031
:103f6000a0d5880089fe37000800fa00889fbe00af
:103f70008a9fbe008c9fbe000004be000205be00ea
:103f8000b6fe07006420e10083fe3e008a00320096
:103f90006708240026e42200a5ef2f00f49e2300ea
:103fa000e70007007a003c000800be000a01be00de
:103fb00077082c0056382400d5462400341c2700ee
:103fc00019ff0700780035000800be000a01be0096
:103fd00003f0a10007c9230006002000050020000f
:103fe0000400200010ff0700710035000800be002b
:103ff0000a01be0077ff230076542100b552260047
:10400000e42f2800d5fc070007fe2300060020004f
:104010006022b80003f0a70007f0a00070fd0700c1
:1040200043fd07000006be004ffb070003f0a2009f
:10403000009fbe000297be0067fe2300060023001b
:104040006022b800c5fc07000802be000a03be00db
:1040500063fd0700809fbe00829fbe003e00be0041
:104060002e01be00b7f22b0006012d0015c625005b
:1040700084ca2000b9fc07004f03be004f02be00f7
:1040800057fd0700809fbe00829fbe000002be0059
:104090000203be00b1fc0700009fbe000297be00f5
:1040a00017ef2300462a250085f52600c4c12d0000
:1040b000aafc0700c7f72300460e270035fb2600a1
:1040c000046e2f0046fd07003e02be002e03be0018
:1040d000a2fc070007fd23000600200005002000c9
:1040e000040020003efd07004f03be004f02be004b
:1040f0009afc0700809fbe00829fbe003e00be006b
:104100002e01be0007f4230096f92300e5fd2600ea
:104110009480230091fc0700c7fa2300e6182700cb
:1041200025142700341b25002dfd07003e02be008c
:104130002e03be0089fc070007fe230006002000b6
:10414000050020000400200025fd0700ffbb9700ac
:104150006fbb9700dfba97004fba97007dfc07004e
:104160000002be000203be004f01be004f00be00b1
:1041700000fb070007fe2300060020006022b800b5
:1041800017fd070061024600acfe070002fe370083
:1041900003ff270022022000a2d588000001eb00c7
:1041a0006000b800fcfd37008001eb00f9ff37002c
:1041b00003ff2300f9ff370003f8a300f6fd3200e8
:1041c0008001eb00f5ff3700800078005002be0050
:1041d0005003be004439de00f700b200f37f200038
:1041e00003016100090032000218e10016003a00e4
:1041f0008501720083017300838173000008200031
:1042000015003a00400020001300370085017200bd
:10421000830173008381730005003a0004a8be0087
:1042200006a8be00100020000b0037000201e900c4
:104230000402420085824a0006034b0087834b003c
:104240000748a300f9ff32000740a00004a8be0001
:1042500006a8be0020002000800098009200980070
:1042600000000600e48240001078a300070032003e
:10427000640240001178a3003400be001401be00a7
:10428000040032000330a700000006003500be0025
:104290001501be000330a00000000600889fbe008c
:1042a0008a9fbe008c9fbe000404be000605be00af
:1042b000809fbe00829fbe00e8fd070004067800d4
:1042c0000800be000a01be00e4fd07008406780075
:1042d0004f03be004f02be008d4f76007fb09700a7
:1042e00013003300f0ff2f008b8f6b0006003b00a4
:1042f0000d0666000c00a7000a00370007f0a600b4
:10430000100020000a003700880f5200898f5a00e1
:104310008a0f5b008b8f5b000300390010002000c8
:1043200001003e000000200007f0a7000000ea00a6
:104330004f06be004f05be004f04be000000060041
:10434000809feb00d5ff07008f87e9000000e000a9
:1043500000000600881f7800000478005001be00ad
:104360004000be000400400085804800060149006e
:1043700087814900009cbe000294be000400e10059
:104380000588e1000690e1000798e1000200310095
:10439000680044001008e8004f04780000000600a0
:1043a000f4874700889fbe008a9fbe008c9fbe0096
:1043b0008e1f78000205be000004be00d4b79f0027
:1043c000e5b79f00f6b79f0087bf9f000000eb0096
:1043d000c0b79f00b0b79f00a0b79f0090b79f00e5
:1043e00080b79f000d042000bfb097004fb097002a
:1043f000000140000000e0000f003d004f08de001b
:1044000000007100c0b79f009e00070001003d0042
:1044100012002000a100070001003d001200200052
:10442000a6000700b1000700b60007000f0040001b
:10443000c8ff0700220037004f08de0000067100a9
:10444000ccb79f008f00070001003d001200200044
:104450009200070001003d001200200097000700b5
:10446000a20007000fb297009fb297002fb39700ea
:10447000bfb39700a90007000000520081805a00d6
:1044800002015b0083815b0080b79f0091b79f00b2
:10449000a2b79f00b3b79f000007eb009f00070083
:1044a0000020e10001a8e10002b0e10003b8e10052
:1044b000010031001e0020000e005600c0b79f0012
:1044c0004fb297000400e000070035001000200004
:1044d000010020006011b800080470008984700099
:1044e0000a0571008b8571008d06e900beff3a0058
:1044f0000400e00003003d00820007000f004000c0
:1045000094ff07004fa897000000e00004003a0065
:104510000fb497009fb497002fb59700bfb59700d1
:10452000940007004f0778004f06be004f05be00fd
:104530004f04be004f01b10000000600881f780044
:1045400018002000881f780095ff07008f87e9007a
:104550004f04780000000600801feb0090ff07006a
:104560008f87e90000000600889fbe008a9fbe007a
:104570008c1f78006e00070007003d0073000700e5
:10458000e00f5b00e08f5b0007003d00320007009a
:104590000006eb00040037003400070002003d0075
:1045a0002a0007001c00200072000700e3ff07003c
:1045b0000203be000002be000c00e0000100320059
:1045c000220007000400be000601be004f0678006e
:1045d0004f05be004f04be0000000600889fbe00cd
:1045e0008a9fbe008c1f78005100070005003d0027
:1045f00056000700e00f5b00e08f5b0006003d0007
:10460000040037001900070003003d006000b800f7
:104610006011b8001000070056000700ceff070029
:104620000203be000002be000c00e00001003200e8
:10463000060007000400be000601be004f06780019
:104640004f05be004f04be00000006006000b80029
:104650006011b80000003700040250008582580045
:104660000603590087835900000006000006eb008e
:10467000e00f5200e08f5a00e00f5b00e08f5b001c
:10468000000006000180400090b79f000001eb0091
:104690008fb097000100e0000000060002007000eb
:1046a00090b79f000180400080b79f000001eb00a1
:1046b000ffa897000100e000000006000200700063
:1046c00080b79f00018040006faa9700cf20de00d6
:1046d00001007000f0af9f000402420025000700b7
:1046e0004f18de000002720000000600e4af9f00d9
:1046f0000804440089844c000a054d008b854d0058
:10470000000006003fb29700cfb297005fb397005a
:10471000efb3970000fe2f00000006003fb09700a7
:10472000cfb097005fb19700efb19700000006008f
:104730000205be000004be00e00f5000e08f5800ec
:10474000e00f5900e08f5900000006006000b8003b
:104750006011b80008045000898458000a05590007
:104760008b8559001c002000e00f5200e08f5a009a
:10477000000006000800be000a01be00000006009e
:1047800080007800f2cf2f000001fd002626b60041
:104790000001fd00003020002626b70020318000f7
:1047a000800878002031800090009800203180003f
:1047b000a000980020318000b00098000001fd00aa
:1047c0002626b6000001fd00003020002626b70096
:1047d000243180002531800026318000273180007f
:1047e00061409000874f5000e7ff3a00000006004c
:1047f00021042000914078008180fb00c508de0084
:1048000092028000ff3ffc0000ceb3004260b70080
:104810009202880050052000303b8800a00a20004a
:10482000303b880027a6a80092028000ff3ffc00d2
:10483000c508dd0042c0bf007f406000014070003d
:1048400042e0b70092028800000006000001be00ae
:1048500023c6bf000080fb004700de000042780056
:104860000004e000070032000100e0000200320016
:1048700023e6a9000300370027c6bf000048a300b5
:10488000fdff3a006f4061004200dd003162200010
:104890009140780032ccb30082c0600080c07000cc
:1048a0000100780023e6b7000404e00003003200b2
:1048b0000300e0000100320023e6a800000006002b
:1048c000800178000101780023c6bf000080fb0052
:1048d0004700de00004278000004e00007003200dc
:1048e0000100e0000200320023e6a90003003700c7
:1048f00027c6bf000048a300fdff3a00e1c06100e9
:10490000c608dd0023c6bf000064a100014070009e
:1049100023e6b7000404e000030032000200e000d8
:104920000100320023e6a80000000600103a8000d3
:104930000010a000720520006104200023742000f4
:104940008149780082497800804978002626ef0066
:104950002746e20005003d0027c6bf000058a3001f
:1049600001003a00a2ff070027e6a90027a6a90038
:1049700000000600889fbe008a9fbe0000047800e9
:10498000010578007040900091c5b300814f500040
:1049900059003e0068409000814f500056003e0094
:1049a00058409000e64f500053003e00c840900031
:1049b00040c2b30080cf50004f003e00384090000e
:1049c000f24f50004c003e000004e0004a0032006c
:1049d000a840900010c3b30080cf500046003e00b6
:1049e0000104e0004400320090c9b300984f100069
:1049f00041003e000a00e0000800320042c0bf0053
:104a00000080fb00c505de0091028000ff3ffc0036
:104a100000ceb3004260b7009102880027c6bf00f5
:104a20004500de00e10460000904e00001003a00f6
:104a30006fff070027c6bf000080fb004700de00b5
:104a4000804078000001eb000004e0000400320028
:104a500023c6bf000080fb004701de0027e6a90057
:104a6000f0cf2f002626b600003020002626b70003
:104a7000180078002031880018009000203188004c
:104a800028009000203188003804900028318800e8
:104a90000104e0000800320027e6a8000200e00060
:104aa0000100320023e6a8000904e00005003200fe
:104ab0004fff0700030037000904e00001003a003f
:104ac00027a6a900100020000a00e0000b00320019
:104ad00092028000ff3ffc00c558dd0042c0bf00cd
:104ae0007f4060000140700042e0b7009202880001
:104af00010002000010037000000eb004f05be0051
:104b00004f04be0000000600800078003004e00082
:104b1000feff3a00010050000000e900000006001e
:104b20008001eb0002003700817178008301e8000a
:104b3000828f5100fcff3a0000000600000378005d
:104b400080027800020278008001eb000800370044
:104b50000402e90063c07800805a78008301e8000d
:104b60000004e00002003a008000eb00060037007d
:104b7000828f5100f6ff3a00fbff37000040eb0048
:104b800080f07a008100e800848f5000fbff3a003b
:104b9000060078000000060080017800000178001f
:104ba00031407800005978000004e000fcff3a0032
:104bb00003007800000006000c00fa00889fbe0089
:104bc00000047800cfb09700f0ff2700d0bf9f000f
:104bd0008004eb0099bf9f0088bf9f00a8bf9f0083
:104be000200c2000b0bf9f007881570070805700d4
:104bf0003a0007000fb89700094878000fb89700ef
:104c000008045000080078004f04be000080fa003d
:104c100000000600889fbe008a9fbe0080007800ca
:104c200000c2b300010037008900780081047800d9
:104c300039447800804f5400fbff3200e94f5400a4
:104c4000f9ff3200d0c2b300804f540004003a0094
:104c5000194478008184e8001ac0b30006003700c8
:104c60000045eb00b0c2b300804f540002003a0090
:104c7000194478008184e8006022b8000a003700f7
:104c8000a2002000030020000400be00fff7070080
:104c90000b4144000281fb000300200000024100a0
:104ca00081824900394478000880fb000bfd2f0009
:104cb0000b004000e90f5000f1ff36000a04e0004d
:104cc0000200320060021200e0821a000400be00fe
:104cd0004f05be004f04be0000000600fe874700df
:104ce000889fbe008a9fbe008c9fbe008e1f7800ea
:104cf000f0b79f000107780082bf9f000000eb0023
:104d0000a0b79f009f0237008006eb0050c2b3009f
:104d100080cf5000090032000100fb00ffb0970077
:104d2000a3020700e10f400096023200afb09700e7
:104d30008100e800a1b79f00920237009e407800f2
:104d4000d0c2b30080cf50000c00320007003c00fe
:104d50006d40500080cf50000a0032006b40400090
:104d600080cf50000e003a000800370000c3b300a7
:104d700080cf50000a003a00060037000d30a00036
:104d8000050037000d00a000030037000d10a00043
:104d9000010037000d20a0000e07e800e7ff3700f4
:104da0000d18a300010032000d00a1000d38a30072
:104db000010032000d20a1000100fb0002fd2f00c8
:104dc00002004000e90f50000e003e000002eb0020
:104dd000c4b79f0082017800cfb297006a28b9005b
:104de0001e01fb000001410003014100c2b79f000a
:104df0005e00fb0003004000e90f50000b003e0086
:104e0000f5ff37000006eb00ccb79f00a0c2b3004f
:104e100080cf500005003a000fb89700c00078001e
:104e200080bf9f00c1b79f000e07e8000001eb00a4
:104e3000b2b79f00e0c2b3009e4f100018003a00c6
:104e40000de0a0008e00e80064405000914f10007b
:104e500002003200010778000c0037000fba9700fb
:104e6000c402780084bf9f00b5b79f000e87e8009a
:104e70000b0037003fb697006a60b90000004100a0
:104e800003004000b0b79f000e07e8001e01fb00c2
:104e900003fd2f0003004100e90f5000f5ff36002d
:104ea000be407800e1d79f00c0c6b30080cf50005d
:104eb000220032000f003c006940500080cf5000bb
:104ec0007700320004003c000104e00031023200af
:104ed0006b4050000f00370040c6b30080cf500039
:104ee000930032006540400080cf50008b003a00b4
:104ef0008f00370030c7b30080cf50001a00320057
:104f000007003c006440500080cf50001100320088
:104f10000040e80080cf500080003a000f003700ca
:104f200050c7b30080cf5000800032006340400083
:104f300080cf500079003a000900370000002800b7
:104f40000d48a30001003a00000120008086760091
:104f5000d3ff37000d60a000750037000d50a00092
:104f60000d70a000720037008fb8970041007800e4
:104f700081bf9f00000478000000e00001003a00bb
:104f800068b521008004eb00010037008104e800cf
:104f900089007800088044001004e000fbff3a001c
:104fa0003fb197000200e00003003200890f51007a
:104fb00001003100820478000002eb00e4af9f00a2
:104fc000cfb29700898f520002003600098052004c
:104fd000e0af9f004368de00e10660001b003a007e
:104fe0000d06780009003700ffb09700000220008e
:104ff000ef010700e10f4000030032002fb09700df
:105000000000e800a0b79f000c06e800efa897009a
:10501000810f5600f4ff3a000081eb00e2af9f00e1
:105020000a003700880078003100fb000104780096
:10503000ffb09700de010700e10f400003003200df
:105040002fb297000402e800a4b79f000900e9000e
:1050500080047800e10f4000f2ff3a000006eb0008
:105060000d00e0000a003a00c6013700ffb09700cb
:1050700000022000ce010700e10f400003003200d3
:10508000afb297008502e800a5b79f000c06e800c4
:105090006fa89700800f5600f4ff3a00b90137005f
:1050a0008fb897004100780081bf9f00cf80de005d
:1050b00001017800820178000205be000004be00f4
:1050c0000203be000002be004822de00482edd00c2
:1050d00004027600e4d79f000d48a3000a003200c6
:1050e0000404e00008003200e14f420006003200f4
:1050f00071fd2f0001804700044878001840980097
:105100002900200002003700f0d79f00190020007e
:1051100072fd2f0002844700a1ff370064fd2f00bd
:1051200004844700190020009dff37000d0cb300d8
:105130000d007800000cb20028003a000d00e000dd
:1051400005003d008fba97004505be004504be002e
:1051500085bf9f00140037000d48a3000b003200ec
:105160000fbe97004c00be008cbf9f004f89de0031
:10517000cf91de000002be000203780082037800b7
:105180000605be000404be00070037008fb8970074
:105190004100780081bf9f0000047800cfc4de008a
:1051a000090578008a057800e00f5400e08f5c0064
:1051b000e00f5d00e08f5d001f003d003d00b3008b
:1051c0006000b8006011b8000804500089845800dd
:1051d0000a0559008b855900170037000d00e000c3
:1051e00005003d000fb997004205be004204be0015
:1051f00082bf9f00100037000d48a3000700320057
:105200000fba97004400be0084bf9f006011b80031
:105210000205be000004be00070037008fba9700e9
:105220004500780085bf9f00000478000900200039
:105230000a0020000b0020003fb697000c00e000a1
:1052400007003a00e00f5400e08f5c00e00f5d00c3
:10525000e08f5d0002003a0010002000b0b79f0010
:105260008d007800010cb200e1b79f00000420001f
:10527000808f50003000320003003c000100e0004d
:105280000800320040003700000820006fb197008e
:10529000800f510014003200000c2000800f5100dc
:1052a00039003a0014c0b30065ab21000b00370091
:1052b0000400fb004300dd00050040005001be007b
:1052c0004000be000040e10001c8e10002d0e10062
:1052d00003d8e1002b0039000442e800f44f5200eb
:1052e000f3ff3a00270037000001200001002000f2
:1052f0006011b80014c0b3000040e10001c8e10033
:1053000002d0e10003d8e1001e0039004500200072
:105310000000d0008180d2000281d2008381d200bf
:105320008502e900faff3a000442e800f04f52001b
:10533000f1ff3a0013003700800020000100200038
:105340006011b80014c0b3000040e10001c8e100e2
:1053500002d0e10003d8e1000a0039003c0020003f
:105360000000d0008180d2000281d2008381d2006f
:105370000c06e900faff3a000442e800f54f52003b
:10538000f1ff3a00e4d79f00efd097000100fb0047
:105390003fb19700820f500002003d00e2d79f000e
:1053a000040037003fb29700800f520001003d001b
:1053b000b0b79f00cfb297000500e00004003200b4
:1053c00063806600020032008502e900c5b79f00d5
:1053d0000de8a3000b0032004fb697003fb09700d6
:1053e000800f560003003c008000eb00c1b79f0017
:1053f000040037004fb197003fb2970004015100fd
:10540000c2b79f00efd297000500fb000006eb003b
:10541000dcaf9f00cfb09700808f500002003400b7
:1054200000805000d0af9f000d28a300370032004d
:10543000e18066000d18a3000c003200d0022000ad
:105440000100e00001003a000080e900ffb0970091
:10545000d7000700e10f40000e0032002fb1970087
:105460000201e800a2b79f000a0037000100e00037
:1054700008003200ffb0970000022000cc000700b7
:10548000e10f4000030032002fb297000402e80051
:10549000a4b79f00dfaa97000500e0000f003200cc
:1054a0000006eb00ffb0970000032000c0000700db
:1054b000e10f4000030032002fb097000000e80029
:1054c000a0b79f000c06e800dfa89700810f5600e8
:1054d000f4ff3a000001eb00d2af9f003fb297000b
:1054e000c320dd00e0aa21008080400091b79f002a
:1054f0004220dd006400500080b79f006320b900a7
:10550000f0af9f006306500084003700dfaa9700c9
:105510000500e00011003200688066000f003a00cc
:1055200000067800ffb0970000022000a0000700ee
:10553000e10f4000030032002fb097000000e800a8
:10554000a0b79f000c06e800dfa89700810f560067
:10555000f4ff3a000001eb00d2af9f00e18066004b
:105560000d18a3000c003200d00220000100e00062
:1055700001003a000080e900ffb097008c000700ae
:10558000e10f4000d5ff32002fb297000402e8007f
:10559000a4b79f00d1ff37000100e000cfff320029
:1055a000ffb097000002200081000700e10f4000db
:1055b000caff3200afb297008502e800a5b79f008e
:1055c000c6ff370000042000efb09700808f500026
:1055d0003100320003003c000100e000080032000e
:1055e0003e003700000820006fb19700800f510087
:1055f00011003200000c2000800f510037003a00eb
:105600001fb097003002be002003be000800be009d
:105610000a01be00c9fb0700a4002000050020000d
:105620006033b800ccfb070004c3b3000442400061
:10563000e4d79f0029003700d5b52100d5b79f00da
:105640000d58a30002003a00e0b62100d0b79f0039
:1056500014002000050020006033b8008fb09700d0
:105660008100e900050033000402d0008582d200e9
:105670000683d2008783d200f9ff37000800be00fe
:105680000a01be00adfb07006f0060005fb197002c
:105690006240780010003700140020000500200050
:1056a0006033b8000c0078000000e900050033000a
:1056b0000402d0008582d2000683d2008783d20004
:1056c000f9ff37000800be000a01be009bfb07007f
:1056d000674060000043b000e0d79f00efd0970024
:1056e0000100fb00ffb0970031000700e10f400010
:1056f000030032002fb197000201e800a2b79f001b
:105700001fb297006802520094b79f008fb29700b3
:10571000e482520085b79f0063065600d0ff2f0039
:105720003fb197000090b9007faa970000004200a7
:1057300063005000800f5600a2ff3a000d38a3000e
:1057400010003200dfaa97000500e0000d003400d1
:105750000006eb00ffb097000002200014000700d5
:10576000e10f4000030032002fb097000000e80076
:10577000a0b79f000c06e800dfa89700810f560035
:10578000f4ff3a00be407800e1d79f000104e0003a
:105790005dfd3a002fb097004f0778004f06be001e
:1057a0004f05be004f04be00ef01b100000006002f
:1057b000889fbe000001780001047800b1009000cd
:1057c0000118a3003d0032000198a30003003a0035
:1057d000180090000000e00038003a000190a0009e
:1057e0003104980082047800f90fb200180090008c
:1057f0000000e00002003a0028009000000c780051
:10580000ea8f540006003a00380090000078a300a8
:1058100003003a0088007800d0002000e4ff070071
:105820009800900058009000808f50000b003200cc
:105830000100e8001004980018007800095878006a
:10584000000c780011c0b300a0ba21000148780014
:10585000ea8f5400060032001900370088007800f3
:105860000940780019000700800478001400370010
:10587000380090000088a300110032001801900049
:10588000a800900048009000c9f40700980090001c
:10589000810f500004003200380090000003b30074
:1058a000300498008084eb000000eb0010049800a6
:1058b00028009000000c7800010037008084eb0085
:1058c000090078004f04be00000006000200fa0044
:1058d000889fbe00a0ff9f0001047800b1009000e7
:1058e000810478000904b200020032000000fb00cd
:1058f000360037000118a30005003a000103b30089
:1059000031049800190498000080eb002f00370044
:10591000580090000000e00006003a0048009000a7
:1059200012002000e6805700a1f407001904980037
:1059300024003700280090000000e00008003a0032
:1059400060ba210020049800000c7800200020009c
:1059500050049800100498000130a0003104980011
:1059600018019000a80090004800900090f40700f3
:1059700028009000000c78000080eb0010049800d4
:1059800018007800aff8970001587800000c7800f4
:105990002ff89700ea4f50000a003a0038009000b4
:1059a0000088a3000700320018019000a8009000b2
:1059b000480090007ef4070019049800a8009000a9
:1059c000010c7800aff897000100fb004f04be0007
:0859d0000080fa00000006004f
:020000040000fa
:020000040002f8
:04aff400ffff00005b
:020000040000fa
:020000040002f8
:04aff800ae030000a4
:020000040000fa
:020000040002f8
:04affc007f3e000094
:020000040000fa
:102800001015040000000000f20f04000100000099
:10281000f20f040001000000f20f040001000000ac
:10282000f20f040001000000f20f0400010000009c
:10283000f20f040001000000f20f0400010000008c
:10284000f20f040001000000aabe04000000000016
:10285000f20f040001000000f20f0400010000006c
:10286000f20f040001000000f20f0400010000005c
:10287000f20f040001000000f20f0400010000004c
:10288000f20f040001000000f20f0400010000003c
:10289000f20f040001000000f20f0400010000002c
:1028a000f20f040001000000f20f0400010000001c
:1028b000fabf040000000000f20f04000100000055
:1028c000f20f040001000000f20f040001000000fc
:1028d000f20f040001000000f20f040001000000ec
:1028e000f20f040001000000f20f040001000000dc
:1028f000f20f040001000000f20f040001000000cc
:10290000f20f040001000000f20f040001000000bb
:10291000f20f040001000000f20f040001000000ab
:10292000f20f040001000000f20f0400010000009b
:10293000f20f040001000000f20f0400010000008b
:10294000f20f040001000000f20f0400010000007b
:10295000f20f040001000000f20f0400010000006b
:10296000f20f040001000000f20f0400010000005b
:10297000f20f040001000000f20f0400010000004b
:10298000fabe040000000000f20f04000100000085
:10299000f20f040001000000f20f0400010000002b
:1029a000f20f040001000000f20f0400010000001b
:1029b000f20f040001000000f20f0400010000000b
:1029c000f20f040001000000f20f040001000000fb
:1029d000f20f040001000000fcda04000000000017
:1029e000f20f040001000000f20f040001000000db
:1029f000f20f040001000000f20f040001000000cb
:102a0000f20f040001000000f20f040001000000ba
:102a1000f20f040001000000f20f040001000000aa
:020000040000fa
:1000080004140000081400000c1400001014000070
:10001800141400000c1500000c1500000c1500004d
:10002800181400001c140000201400002414000000
:100038000c150000281400002c14000030140000d7
:1000480034140000381400003c1400004014000070
:1000580044140000481400000c1500000c150000a2
:100068004c140000501400005414000058140000f0
:100078005c1400000c1500006014000064140000fb
:100088000c150000681400006c14000070140000c7
:1000980074140000781400007c1400008014000020
:1000a80084140000881400000c1500000c150000d2
:1000b8000c1500008c14000090140000941400002b
:1000c800981400009c140000a0140000a414000060
:1000d800a8140000ac1400000c1500000c1500005a
:1000e8000c150000b0140000b41400000c1500003a
:1000f8000c150000b8140000bc1400000c1500001a
:100108000c1500000c1500000c1500000c15000063
:100118000c1500000c150000c01400000c150000a0
:100128000c150000c4140000c8140000cc14000012
:100138000c1500000c1500000c1500000c15000033
:10014800d01400000c1500000c1500000c15000060
:100158000c150000d41400000c1500000c1500004c
:100168000c150000d8140000dc140000e014000096
:10017800e4140000e8140000ec140000f01400007f
:10018800f4140000f8140000fc140000001500002e
:1001980004150000081500000c1500000c150000df
:1001a8000c1500000c1500000c1500000c150000c3
:1001b8000c1500000c1500000c1500000c150000b3
:1001c8000c1500000c1500000c1500000c150000a3
:1001d8000c1500000c1500000c1500000c15000093
:1001e8000c1500000c1500000c1500000c15000083
:0801f8000c1500000c150000bd
:020000040000fa
:1059d80012010000000200000000000000080000a2
:1059e800d80400005400000001000000010200007b
:1059f8000001000009020000400000000201000050
:105a080000c000003209000004000000000200008d
:105a18000806000050000000070500008102000091
:105a280040000000010700000501000002400000de
:105a3800000100000904000001000000020300004a
:105a48000000000000090000211100000100000012
:105a5800012200001d00000007050000820300006d
:105a6800400000000107000005020000034000009c
:105a78000001000006000000ff09000001a100006d
:105a8800011900000129000040150000002600004f
:105a9800ff0000007508000095400000810000002c
:105aa800190100002940000091000000c00000001a
:105ab8000403000009040000500300005500000022
:105ac8004d0000006100000073000000730000003a
:105ad800200000004c0000006f000000770000006c
:105ae800650000006c0000006c0000002000000051
:105af8002d00000020000000450000006e0000009e
:105b080067000000610000006700000069000000f5
:105b18006e00000067000000200000004300000045
:105b28006f0000006d0000007000000075000000ac
:105b380074000000690000006e00000067000000ab
:105b48002000000047000000720000006f00000005
:105b580075000000700000002c03000069000000c0
:105b680053000000450000004e00000053000000f4
:105b780045000000200000007500000050000000f3
:105b8800490000004e000000500000006f000000b7
:105b9800690000006e000000740000002000000092
:105ba80056000000310000002e0000003000000008
:105bb800feac00005cad000060ad0000b0ad0000c0
:105bc8000080000004020000200000000000000027
:105bd800554d00004c2000004543000047200000c0
:105be8004d6100007373000020530000746f0000c3
:105bf800726100006765000020200000202000007e
:105c080030300000303100002530000032780000cc
:105c18002d25000030320000782d000025300000ce
:105c2800327800000025000030320000785f000064
:105c380025300000327800005f2500003032000077
:105c4800782e0000637300007600000077000000e3
:105c58002e2e000000540000696d0000652c000025
:105c6800204500006c61000070730000656400004e
:105c7800546900006d6500002c20000000540000ed
:105c8800656d0000706500007261000074750000a9
:105c9800726500002c20000050720000657300003f
:105ca80073750000726500002c200000416c000034
:105cb8007469000074750000646500002c20000001
:105cc8000041000063630000656c0000582c000070
:105cd8002041000063630000656c0000592c00003f
:105ce8002041000063630000656c00005a2c00002e
:105cf8002041000063630000656c00004d610000f6
:105d0800672c0000204c00006967000068740000e0
:105d18000d0a000000720000006300006f6e0000b2
:105d280066690000672e00007478000074000000a7
:105d380000950000000000000000000001f90000cc
:105d480000000000000000000887000004000000b8
:105d58000000000009af0000000000000100000082
:105d68000a1b000000000000010000000cc3000036
:105d780001000000000000000daf0000020000005c
:105d88000000000010ff00000000000000000000fc
:105d980011ff0000000000000100000012ff0000d9
:105da800000000000100000018ff000000000000d3
:105db8000100000019ff00000000000001000000c1
:105dc80020ff0000000000000000000021ff00008c
:105dd800000000000000000026df000001000000b5
:105de8000000000037730000000000000000000001
:105df8003a25000004000000000000003b250000d8
:105e0800000000000000000029ff0000040000005e
:105e18000000000017ff0000000000000000000064
:105e28002e0000002e000000000000002e2e0000b2
:045e38000000000066
:020000040000fa
:105e3c000400fa000000eb00000f780006003700a9
:105e4c009e007800808720008080400010c0b30046
:105e5c00804878001e0fe800100020009e0f1000f4
:105e6c00f7ff34000040eb0096fab7000040eb005f
:105e7c008cfab7000080eb008080eb0040d48800e7
:105e8c0051d488000080eb008080eb0080d4880027
:105e9c0091d488008c62070040f52000e4070700cd
:105eac000004e0003c003a00c1d4800040f5200022
:105ebc0080087800c1d480000000eb00d00098006e
:105ecc00c1d480000000eb00e0009800c2d4800038
:105edc006000b8007001980001099800c2d48000dd
:105eec006000b8001009980021099800c1d4800006
:105efc00c0c5b300c058980010002000000f7800f7
:105f0c0007003700c1d480001e0078007c004000e0
:105f1c008100400000c2b300804878001e0fe800ea
:105f2c00a00020009e0f1000f6ff3400c1d48000aa
:105f3c000000eb00f0109800c1d48000000120009c
:105f4c0090189800c2d48000a0748000b1748000b6
:105f5c002019980031199800c2d48000a0748000d8
:105f6c00b17480004019980051199800c1d4800078
:105f7c0010002000c0109800c1d480000000eb007d
:105f8c00e01098000040eb0098eeb70010002000e5
:105f9c0010079800020037000000eb001007980073
:105fac001e0090000080fa00000006005e00fa005f
:105fbc00881f7800202f9800312f980002df98005e
:105fcc0013df98002e289000701090001017980086
:105fdc00b0002000600f9800e0c72000300f980040
:105fec003e289000d0109000210f98000000eb008c
:105ffc00000f98000000eb00700798000000eb0009
:10600c00500798000000eb00200798000040eb00c0
:10601c00104798000040eb00004f78003e2890009d
:10602c0060109000d07b8800d07b80000000e000e6
:10603c0017003200d07b8000d20020001100090034
:10604c000280d8008000fd00004f7800d07b8000db
:10605c00d2002000110009000280d800005f9800d7
:10606c001e04e00003003a00d07b8000ec0f5000cf
:10607c0003003e000e5890000040e800005f9800be
:10608c000e58900001c4b3000140700010479800f6
:10609c002e289000b0189000201890002e29900007
:1060ac0040199800511998003e2890001019900042
:1060bc00020078000080ea008180ea00700f9800ee
:1060cc001e1090000000e0000a003a00210220009f
:1060dc008e80400012c0b3002e2890006817070075
:1060ec000000e00010003a00b0012000600f9800a2
:1060fc000d0037001e1090006f0060000000e000e3
:10610c0009003200210220008e80400012c0b30032
:10611c002e2890005a1707000000e00002003a00f9
:10612c00b0012000600f98006e089000fb0f50002b
:10613c0021063200000037006e0890000000e000dd
:10614c001d0632000000eb00400798000000eb0039
:10615c0030079800220220000e014100410220006d
:10616c008e8040002e2890005f200700105f980062
:10617c001e589000e24f50000f0632001e5890003f
:10618c000004e000fa053a00400220000e00400036
:10619c0030489000ef4f5000200032000000eb0020
:1061ac0050079800400220000e00400090407800fc
:1061bc003e089000014878000040eb00005f98001a
:1061cc00100037000e5890000080fb008000780013
:1061dc003e089000008040000001e8000e5890003e
:1061ec008080fb00400220000e0040000080400038
:1061fc0010409000004978000e5890000040e800d4
:10620c00005f98000e589000e94f5000edff3600eb
:10621c001000200040079800bc013700400220000d
:10622c000e004000104078000080fb004600de00ad
:10623c00610060000004e000f60032001ed89000ff
:10624c000004e00010003a00d07b80000000e00069
:10625c0006003200400220000e0040009040780002
:10626c001e40900080cf500003003a00d07b80008d
:10627c000000e00004003a001e1090000000e8004e
:10628c0010179800acff3700400220000e004000b1
:10629c00104078008080fb00f00b20000080600034
:1062ac006d00b9000000e900000f98000e08900086
:1062bc00100f98008e089000400220000e00400045
:1062cc007009900081804000e0c7200000804000f1
:1062dc00020878000e0890000000e900000f9800fa
:1062ec008e089000400220000e00400060099000d3
:1062fc0081804000e0c72000008040000208780048
:10630c000e0890000000e900000f98008e08900025
:10631c00400220000e0040004009900081804000a7
:10632c00e0c7200000804000020878000e089000b2
:10633c000000e900000f98008e0890004002200039
:10634c000e0040003009900081804000e0c7200022
:10635c0000804000020878000e0890000000e90060
:10636c00000f98008e089000400220000e004000a4
:10637c002009900081804000e0c720000080400090
:10638c00020878000e0890000000e900000f980049
:10639c008e089000400220000e0040001009900072
:1063ac0081804000e0c72000008040000208780097
:1063bc000e0890000000e900000f98008e08900075
:1063cc00400220000e004000000990008180400037
:1063dc00e0c7200000804000020878000e08900002
:1063ec000000e900000f98008e0890004002200089
:1063fc000e0040007001900081804000e0c720003a
:10640c0000804000020878000e0890000000e900af
:10641c00000f9800400220000e0040001048900031
:10642c0040c79800400220000e0040002048900019
:10643c0050c798000e0890002e219000800040005c
:10644c00e0c7200000804000020878000e08900091
:10645c000000e900000f9800400220000e004000f0
:10646c007040900040c79800400220000e00400091
:10647c000048900050c798000e0890002e21900004
:10648c0080004000e0c72000008040000208780037
:10649c000e0890000000e900000f98004002200058
:1064ac000e0040005040900040c798004002200071
:1064bc000e0040006040900050c798000e089000fd
:1064cc002e21900080004000e0c72000008040009a
:1064dc00020878000e0890000000e900000f9800f8
:1064ec00400220000e0040003040900040c7980051
:1064fc00400220000e0040004040900050c7980021
:10650c000e0890002e21900080004000e0c7200073
:10651c0000804000020878000e0890000000e9009e
:10652c00000f9800400220000e0040001040900028
:10653c0040c79800400220000e0040002040900010
:10654c0050c798000e0890002e219000800040004b
:10655c00e0c7200000804000020878000e08900080
:10656c000000e900000f98001e04e0000300320058
:10657c009e407800015f980002003700d0c0b30045
:10658c00005f98001ed890000004e00014003a0050
:10659c000e5890008080fb000e0890000080400098
:1065ac0080004000e0c72000008040001000780010
:1065bc000000e00014003200d07b80000000e000fe
:1065cc00110032001e1090000000e8001017980017
:1065dc00d9fe37001e0890000000e900100f98004b
:1065ec001e08900080004000e0c7200000804000a2
:1065fc00100078000000e000f6ff3a001e08900042
:10660c000000e90070079800100020005007980067
:10661c00b50037005e009000e10f5000ae003a006c
:10662c008e089000400220000e004000700990007f
:10663c0081804000e0c72000008040000208780004
:10664c000e0890000000e900000f98008e089000e2
:10665c00400220000e004000600990008180400044
:10666c00e0c7200000804000020878000e0890006f
:10667c000000e900000f98008e08900040022000f6
:10668c000e0040004009900081804000e0c72000cf
:10669c0000804000020878000e0890000000e9001d
:1066ac00000f98008e089000400220000e00400061
:1066bc003009900081804000e0c72000008040003d
:1066cc00020878000e0890000000e900000f980006
:1066dc008e089000400220000e004000200990001f
:1066ec0081804000e0c72000008040000208780054
:1066fc000e0890000000e900000f98008e08900032
:10670c00400220000e0040001009900081804000e3
:10671c00e0c7200000804000020878000e089000be
:10672c000000e900000f98008e0890004002200045
:10673c000e0040000009900081804000e0c720005e
:10674c0000804000020878000e0890000000e9006c
:10675c00000f98008e089000400220000e004000b0
:10676c007001900081804000e0c720000080400054
:10677c00020878000e0890000000e900000f980055
:10678c00400220000e0040001048900040c79800c6
:10679c00400220000e0040002048900050c7980096
:1067ac000e0890002e21900080004000e0c72000d1
:1067bc0000804000020878000e0890000000e900fc
:1067cc00000f9800400220000e0040007040900026
:1067dc0040c79800400220000e0040000048900086
:1067ec0050c798000e0890002e21900080004000a9
:1067fc00e0c7200000804000020878000e089000de
:10680c000000e900000f9800400220000e0040003c
:10681c005040900040c79800400220000e004000fd
:10682c006040900050c798000e0890002e219000f8
:10683c0080004000e0c72000008040000208780083
:10684c000e0890000000e900000f980040022000a4
:10685c000e0040003040900040c7980040022000dd
:10686c000e0040004040900050c798000e08900069
:10687c002e21900080004000e0c7200000804000e6
:10688c00020878000e0890000000e900000f980044
:10689c00400220000e0040001040900040c79800bd
:1068ac00400220000e0040002040900050c798008d
:1068bc000e0890002e21900080004000e0c72000c0
:1068cc0000804000020878000e0890000000e900eb
:1068dc00000f9800040037001e1090000000e80024
:1068ec001017980014fe37000e0890000000e0000e
:1068fc00040034001e1090000000e80010179800ef
:10690c000dfe370010002000300798000000eb004f
:10691c00500798000000eb00600f98001ed8900004
:10692c000080fb00602f98006e2890000000e000b3
:10693c0004003200ee289000e18f50007701320005
:10694c00cc0337000040eb00005f980010003700cc
:10695c000e5890000081fb000e5890000080fb0048
:10696c00800078003e0890000080400010407800c5
:10697c0080407800600420000e00400000004100c0
:10698c00014878000e5890000040e800005f980025
:10699c000e589000ea4f5000edff36003e08900074
:1069ac00680040009040780000c2b30080cf5000d7
:1069bc00660032000040eb00005f98000c003700ce
:1069cc000e5890000080fb00800078003e0890007c
:1069dc00008040009040780000c2b30080cf50008f
:1069ec00060032000e5890000040e800005f98004e
:1069fc000e589000e74f5000f1ff36000e589000f3
:106a0c008080fb00600420000e004000808040006d
:106a1c00e0c2b300804878000e5890000040e800b7
:106a2c00005f98000e5890000081fb003e0890001b
:106a3c00680040001040780080407800600420001e
:106a4c000e00400000004100014878000e589000f4
:106a5c000040e800005f98003e089000690040008c
:106a6c009040780000c2b30080cf50000e0032007e
:106a7c000e5890000081fb003e0890006900400019
:106a8c001040780080407800600420000e00400028
:106a9c0000004100014878000e5890000040e800ca
:106aac00005f98000a0037000e5890008080fb00b1
:106abc00600420000e004000808040000040eb008d
:106acc00804878000e5890000040e800005f980065
:106adc003e0890006a0040009040780000c2b3006d
:106aec0080cf50000e0032000e5890000081fb0049
:106afc003e0890006a00400010407800804078000a
:106b0c00600420000e0040000000410001487800a5
:106b1c000e5890000040e800005f98001d00370000
:106b2c000e5890008080fb00600420000e00400096
:106b3c00808040000040eb00804878000e589000a8
:106b4c000040e800005f9800120037000040eb00a6
:106b5c00005f98000c0037000e5890008080fb00fe
:106b6c00600420000e00400000804000904078003f
:106b7c0000c2b30080cf5000060032000e589000c7
:106b8c000040e800005f98000e589000e74f50005e
:106b9c00f1ff36000e5890008080fb00600420004e
:106bac000e004000808040000040eb0080487800e0
:106bbc00d07b80000000e0007c0032003e009000a2
:106bcc000000e000400032000000eb00100f9800c5
:106bdc00380037003e289000401090000000e00084
:106bec00210032001e089000000040008000780058
:106bfc002e0890000080400010007800305f980054
:106c0c001e08900080004000e0c72000008040007b
:106c1c0010007800205f98001e0890008000400053
:106c2c00e0c720000080400090007800f00f2000aa
:106c3c00808f500009003e003e5890000080fb0001
:106c4c00caef0700000478002e5890000080fb006b
:106c5c00c6ef0700800f540013003200b000200074
:106c6c00600f9800030337001e08900000004000de
:106c7c00800078002e089000008040001001780001
:106c8c001e08900080004000e0c7200000804000fb
:106c9c0010007800800f510003003200b00020007b
:106cac00600f9800f30237001e0890000000e80007
:106cbc00100f98009e089000d07b8000808f5000b1
:106ccc00c4ff3900eb0237004e0090000000e000da
:106cdc00330032003e289000401090000000e0008d
:106cec002f003200600420000e00400083f70700e4
:106cfc0080007800d07b80000000e900808f50007d
:106d0c0003003200b0002000600f9800d902370059
:106d1c000000eb00100f98001c0037001e089000bc
:106d2c0000004000800078002e0890000080400099
:106d3c0010007800305f98009e08900060042000de
:106d4c000e0040000080400010407800205f98004a
:106d5c003e5890000080fb0084ef07000004780090
:106d6c002e5890000080fb0080ef0700800f54002d
:106d7c0003003200b0002000600f9800bd02370005
:106d8c001e0890000000e800100f98009e0890006c
:106d9c00d07b8000808f5000e0ff3900b5023700b7
:106dac00b0002000600f9800b20237003e00900047
:106dbc000000e00035003200600420000e004000ae
:106dcc004ef70700800078007e009000808f500006
:106ddc0003003200b0002000600f9800a5023700bd
:106dec000000eb00100f9800230037001e089000e5
:106dfc0080004000e0c720000080400010007800b8
:106e0c00305f98009e089000600420000e00400047
:106e1c000080400010407800205f98001e08900011
:106e2c0080004000e0c72000008040009000780007
:106e3c00f00f2000808f500009003e003e5890005b
:106e4c000080fb0049ef0700000478002e589000ea
:106e5c000080fb0045ef0700800f54000300320058
:106e6c00b0002000600f9800820237001e089000ce
:106e7c000000e800100f98009e0890007e00900023
:106e8c00808f5000d9ff34007a0237000040eb00ad
:106e9c00005f98001d0037000e5890000080fb002a
:106eac00800078003e089000008040009040780000
:106ebc00315f98000e5890000080fb00be289000b7
:106ecc007c0040000100400010407800205f9800da
:106edc003e5890000080fb0024ef0700000478006f
:106eec002e5890000080fb0020ef0700800f54000c
:106efc0003003200b0002000600f98005d023700e4
:106f0c000e5890000040e800005f98000e5890006a
:106f1c00ea4f5000e0ff360056023700d07b80006d
:106f2c000000e0005f0132000000eb002007980039
:106f3c003e0090000000e0001d0032007e0090003a
:106f4c0060079800110037006e0090008000400030
:106f5c00e0c720000080400090007800e002200094
:106f6c00808f500006003a00100020002007980087
:106f7c006e0090000000e9006007980006003700e2
:106f8c006e0090000000e900600798006e00900011
:106f9c000000e000ecff3c002e0090000000e00040
:106fac000d003a00fe009000610798000a003700bf
:106fbc003e089000680040009040780000c2b3008a
:106fcc0080cf5000020032001000200020079800f3
:106fdc007000200060079800d07b80000000e90062
:106fec00000f98000000eb0010079800120037000b
:106ffc000e08900000004000800078002e089000e1
:10700c000080400090007800e0022000808f50004b
:10701c0006003a0010002000100798000e0890009f
:10702c000000e900000f9800060037000e089000e1
:10703c000000e900000f98000e0890000000e0002e
:10704c00ebff3c001e0090000000e00003003a0043
:10705c00d07b80000000e900000f98000000eb00de
:10706c00100f98001e08900000004000800078006f
:10707c002e0890000080400090007800a0022000b4
:10708c00808f5000620032009e0890006e009000cd
:10709c00808f500003003400b0002000600f980077
:1070ac005b0037001e089000000040008000780054
:1070bc002e0890000080400090007800f003200023
:1070cc00808f5000450032003e2890004010900008
:1070dc000000e0002e0032001e089000000040006e
:1070ec00800078002e08900000804000100078008e
:1070fc00305f98003e0090000000e0000700320076
:10710c001e08900080004000e0c720000080400076
:10711c0010007800205f9800060037001e089000d1
:10712c00800078003e08900000804000904078007d
:10713c00215f98003e0090000000e0000800320043
:10714c001e08900080004000e0c720000080400036
:10715c0090007800f00f2000808f500009003e0056
:10716c003e5890000080fb0080ee07000004780081
:10717c002e5890000080fb007cee0700800f54001e
:10718c0016003200b0002000600f9800200037007d
:10719c001e08900000004000800078002e0890002f
:1071ac0000804000100178001e0890008000400014
:1071bc00e0c720000080400010007800800f5100d4
:1071cc0003003a004e0090000000e0000300320083
:1071dc00b0002000600f98000d0037001e089000d2
:1071ec000000e800100f98009e0890000e08900018
:1071fc00808f50009bff34009e0890006e00900022
:10720c00808f500002003c00b0002000600f9800fe
:10721c001e0090000000e00006003a002e009000d6
:10722c00e10f500093013a00b0002000600f98006d
:10723c00900137002e0090000000e00003003a009f
:10724c00b0002000600f98008a0137003e009000cb
:10725c000000e000040032006e0090000080e800a6
:10726c00600798000200370080002000600798003b
:10727c000e0890000080e800100f98001e08900087
:10728c0000004000800078002e0890000080400034
:10729c0090007800a0022000808f50007501320011
:1072ac003e0090000000e00004003200ee00900070
:1072bc007e009000808f500006003c004e00900035
:1072cc000000e000060032006e009000eb0f500052
:1072dc0003003a00b0002000600f980065013700f1
:1072ec001e08900000004000800078002e089000de
:1072fc000080400090007800f0032000808f500048
:10730c00450032003e289000401090000000e00044
:10731c002e0032001e089000000040008000780013
:10732c002e0890000080400010007800305f98001c
:10733c003e0090000000e000070032006e0090005c
:10734c0080004000e0c72000008040001000780062
:10735c00205f9800060037006e00900080007800d7
:10736c003e0890000080400090407800215f98001b
:10737c003e0090000000e000080032006e0090001b
:10738c0080004000e0c720000080400090007800a2
:10739c00f00f2000808f500009003e003e589000f6
:1073ac000080fb00f1ed0700000478002e589000df
:1073bc000080fb00eded0700800f5400160032003a
:1073cc00b0002000600f98002a0137001e089000c2
:1073dc0000004000800078002e08900000804000e3
:1073ec00100178006e00900080004000e0c7200083
:1073fc000080400010007800800f510003003a001c
:10740c004e0090000000e00003003200b0002000ad
:10741c00600f9800170137006e0090000000e80024
:10742c00600798001e0890000000e800100f9800fc
:10743c009e089000d07b80000000e900808f5000f7
:10744c008eff3a003e0090000000e0000400320085
:10745c00ee0090007e009000808f50000e003400f3
:10746c004e0090000000e000020132006e0090001f
:10747c00ea0f5000ff003c006e0090008000780086
:10748c003e089000008040009040780000c2b3009d
:10749c0080cf5000f7003200b0002000600f980041
:1074ac00f40037003e0090000000e0001f003200a6
:1074bc007e009000100f98000000eb002007980051
:1074cc00110037001e08900080004000e0c720002b
:1074dc000080400090007800e0022000808f500077
:1074ec0006003a0010002000200798001e089000ab
:1074fc000000e900100f9800060037001e089000ed
:10750c000000e900100f98001e0890000000e00039
:10751c00ecff3c002e0090000000e00005003a005b
:10752c00fe009000110f9800020037007000200040
:10753c00100f9800d0c6b300305f98003e28900022
:10754c00c0589000a0c2b30080cf5000530032004e
:10755c000040eb00005f98003e0090000000e0004f
:10756c00110032000e5890000080fb00800040009b
:10757c00e0c720000080400090007800f00f200051
:10758c00808f500005003e000e5890008080fb005c
:10759c001e089000808f500003003400b0002000c3
:1075ac00600f98003d0037003e0090000000e000a6
:1075bc00080032000e5890000080fb008000400054
:1075cc00e0c720000080400010007800305f980079
:1075dc00070037000e5890000080fb0080007800f8
:1075ec003e0890000080400090407800315f980089
:1075fc000e5890000080fb00be2890007c004000dc
:10760c000100400010407800205f9800ae589000b8
:10761c00a0c2b30080cf500020003200ae589000c2
:10762c00f0c3b30080cf50000c0032003e589000e5
:10763c000080fb004ded0700000478002e589000f0
:10764c000080fb0049ed0700800f5400030032005e
:10765c00b0002000600f9800100037000e5890000a
:10766c000040e800005f98000e589000e84f500072
:10767c00b9ff3a003e0090000000e0000700320025
:10768c000e5890008080fb001e089000808f5000e8
:10769c0002003c00b0002000600f98003e289000d3
:1076ac00c0609000a0c2b30080cf500071003200c7
:1076bc006e0890000000e0006e003a003e00900062
:1076cc000000e000150032003e289000c0609000e1
:1076dc0000c2b30080cf500006003a002e0090008c
:1076ec00e10f500063003a00b0002000600f9800da
:1076fc00600037002e0090000000e00003003a000c
:10770c00b0002000600f98005a0037001e0890004f
:10771c000080e800100f9800020037008000200065
:10772c00100f980080c0b300005f98003e009000de
:10773c000000e0000f0032001e08900080004000a6
:10774c00e0c720000080400090007800f00f20007f
:10775c00808f500004003e009e0890007e00900038
:10776c00808f500003003400b0002000600f9800a0
:10777c00400037000e5890000080fb00be2890009f
:10778c007c0040000100400010407800205f980011
:10779c003e0090000000e0000a0032001e0890003d
:1077ac0080004000e0c720000080400010007800fe
:1077bc00305f98001e0890000000e800100f980041
:1077cc00090037001e089000800078003e089000e9
:1077dc000080400090407800315f98001e089000b7
:1077ec000000e800100f9800ae589000a0c2b30043
:1077fc0080cf50001f003200ae589000f0c3b30091
:10780c0080cf50000c0032003e5890000080fb00ee
:10781c00d6ec0700000478002e5890000080fb0086
:10782c00d2ec0700800f540003003200b00020009f
:10783c00600f98000f0037000e5890000040e800d1
:10784c00005f98000e589000eb4f5000b7ff3a00c5
:10785c003e0090000000e000060032009e08900000
:10786c007e009000808f500002003c00b000200091
:10787c00600f98006e0890000000e00043003a0092
:10788c003e0090000000e000030032001e1090004b
:10789c000000e80010179800210220008e804000a4
:1078ac002e289000e2190700105f98003e0090000f
:1078bc000000e000030032001e1090000000e90000
:1078cc00101798002e28900090189000011798001f
:1078dc008e109000f00320000080600000179800cc
:1078ec001ed890000080fb00502f98005e2890005e
:1078fc000000e00004003200de289000e18f500010
:10790c0007003200210037000e109000e80f5000e5
:10791c001e003a00b0002000600f98001b003700da
:10792c000e109000fe089000010060000000e000c6
:10793c0002003200b0002000600f98003e00900062
:10794c000000e000060032007e0090000000e8001d
:10795c00800078002e289000611098000b003700f2
:10796c00ae2890000000eb00e010980007003700f4
:10797c000000eb00500798000ed890000004e000c7
:10798c0002003a000000eb00600f98003e009000ef
:10799c000000e000040032001e1090000080e8009f
:1079ac0010179800e4f937001e1090000000e80052
:1079bc0010179800e0f937006e0890004f0478001b
:1079cc000080fa00000006001200fa005007980030
:1079dc0061079800624f98000000eb00000f7800e0
:1079ec005e00900090007800410798004e009000d7
:1079fc00306090000004e00003003a0070002000aa
:107a0c00000f78008d0037005e009000b0189000d9
:107a1c00201890005e0190004019980051199800b0
:107a2c006e009000100078000000e00009003a00a1
:107a3c0012c0b300ee0090005e0090001011070021
:107a4c000000e00010003a00b0012000000f7800a8
:107a5c000d0037006e009000100078006f00600081
:107a6c000000e0000800320012c0b300ee009000ed
:107a7c005e009000021107000000e00002003a00d6
:107a8c00b0012000000f7800ee0090005e00900026
:107a9c0067190700604798006e4090000004e000f2
:107aac0003003200b0002000000f780063003700a4
:107abc005e0190006000b800700198000109980008
:107acc005e009000a0009000100090005e019000fd
:107adc003001980041019800de0090000000eb009e
:107aec00d0009800de0090000000eb00e000980051
:107afc006e409000e14f500003003a00b0002000af
:107b0c00000f78002d0037005e00900030019000cf
:107b1c00c00190004e009000491f0700100798000c
:107b2c002107980094dabf000004e0000600320040
:107b3c006e2107000004e0000300320090002000da
:107b4c00000f98003f003700de00900071d48800d1
:107b5c0082d4800093d480001e009000ae00900070
:107b6c00800f5100818f5900140032000040eb004f
:107b7c0096fab7004e0090009080fb0010409000e9
:107b8c000080fb004800dd0001007000000178005f
:107b9c001e009000ae009000ff5b07000004e000a8
:107bac0002003a0080002000000f78001e009000b8
:107bbc00ae00900080d4880091d488005e019000c3
:107bcc00b2089000b0ff2f000080600030099800d0
:107bdc00ee48900070c7b30080cf50000400320014
:107bec00ee48900010c6b30080cf50000a003a0057
:107bfc00de009000310890000000a000b008980052
:107c0c005e019000b2089000d0ff2f000080600051
:107c1c0030099800090037005e019000b20890000e
:107c2c00e0ff2f000080600030099800de0090001b
:107c3c00310890000010a000b00898009e00780059
:107c4c00010f98000e0890000080fa00000006005a
:107c5c001c00fa00200f9800320f9800430f980078
:107c6c000040eb00204798002e089000100f780081
:107c7c001e007800206090000080fb00500f9800e0
:107c8c005e089000e10f50000d0032005e0990007c
:107c9c00e30f5100010032001200370080ff2f006b
:107cac00f1ff20002007980031079800f0ff2f000b
:107cbc00f1ff200040079800510798001100370091
:107ccc0080ff200001002000200798003107980059
:107cdc00f0ff2f000100200040079800510798008a
:107cec000800370080ff2f000100200020079800bb
:107cfc0031079800f0ff2f0001002000400798008a
:107d0c00510798002e08900030019000c00190009f
:107d1c0062079800730798006e019000fe019000b6
:107d2c001e00780075290700000f9800110f9800ad
:107d3c000e0990009e0990004e009000de0090000d
:107d4c00800f5100818f590003003a0080c0b300ae
:107d5c00204798001f0037009e007800415090008b
:107d6c000082fb00515090000080fb004800dd00b9
:107d7c000400700000017800615090000082fb004c
:107d8c00715090000080fb004800dd000400700082
:107d9c00800178000e0890009e089000800f510022
:107dac00818f590002003e00a0c0b300204798000c
:107dbc000e0990009e0990002e009000be009000cd
:107dcc00800f5100818f590002003900c0c3b300ed
:107ddc00204798002e0890000e0990009e099000f4
:107dec0032009800430098003e089000ce089000a6
:107dfc0061005000e0805800300f9800410f98004f
:107e0c003e089000ce089000e00f5000e08f580024
:107e1c00030032002e4090000004e000b9ff320055
:107e2c002e4090000080fb000080fa00000006004d
:107e3c000800fa00200798000040eb00204798004b
:107e4c00ae0090000040eb00b0609800ae009000d7
:107e5c0082412100f00f2000000061009141780068
:107e6c00e0c86100914870004811de00114090009c
:107e7c00604060000240700090409800585e07001f
:107e8c00000f78001e007800104078000004e0001d
:107e9c000500320060c0b3002047980060c0b300fa
:107eac0098eeb7003c0037001e0078009000780078
:107ebc0000102000008060000000e000270032006d
:107ecc001e007800100090006101b800ae00900018
:107edc00f00f20000002610001589000604060002b
:107eec0004407000805898004812de001158900031
:107efc00604060000440700090589800f00f200023
:107f0c0000826100215890006040600004407000c5
:107f1c00a05898004819de0031589000604060006d
:107f2c0002407000b05898001e007800900090003d
:107f3c0000202000808f50000800360010c2b300d3
:107f4c002047980010c2b30098eeb7002e40900066
:107f5c000080fb0030079800120037002e009000c4
:107f6c0013000700204798002e4090000004e0000a
:107f7c0009003a002e0090003e01070020479800af
:107f8c002e4090000004e00003003a00ae00900088
:107f9c0010c0b300b06098002e4090000080fb0031
:107fac00300798003e0090000080fa0000000600a8
:107fbc000e00fa00300798000040eb0030479800a4
:107fcc003e0090009080fb00104090000080fb0071
:107fdc004800dd0001007000000178006000b8006e
:107fec00ed5a0700e14f50000500320080c0b3008d
:107ffc003047980080c0b30098eeb70017013700e7
:10800c003e0090009080fb00104090000080fb0030
:10801c004800dd0001007000000f78001e007800a1
:10802c00e0f8930050c5b30080cf5000a3003a0095
:10803c001e007800f0f89300a0cab30080cf500067
:10804c009e003a003e0090009080fb001040900093
:10805c000080fb004800dd0001007000610320007f
:10806c00ba1d07008040780060c4b30080cf500078
