:020000040000FA
:1000000000040400000000000414000008140000B4
:100010000C14000010140000141400000C15000053
:100020000C1500000C150000181400001C14000032
:1000300020140000241400000C15000028140000F7
:100040002C14000030140000341400003814000098
:100050003C14000040140000441400004814000048
:100060000C1500000C1500004C140000501400008A
:1000700054140000581400005C1400000C1500001B
:1000800060140000641400000C15000068140000E7
:100090006C14000070140000741400007814000048
:1000A0007C140000801400008414000088140000F8
:1000B0000C1500000C1500000C1500008C1400003D
:1000C0009014000094140000981400009C14000088
:1000D000A0140000A4140000A8140000AC14000038
:1000E0000C1500000C1500000C150000B0140000E9
:1000F000B41400000C1500000C150000B81400002A
:10010000BC1400000C1500000C1500000C150000BC
:100110000C1500000C1500000C1500000C1500005B
:10012000C01400000C1500000C150000C4140000E1
:10013000C8140000CC1400000C1500000C150000C1
:100140000C1500000C150000D01400000C15000068
:100150000C1500000C1500000C150000D414000054
:100160000C1500000C1500000C150000D814000040
:10017000DC140000E0140000E4140000E8140000A7
:10018000EC140000F0140000F4140000F814000057
:10019000FC14000000150000041500000815000004
:1001A0000C1500000C1500000C1500000C150000CB
:1001B0000C1500000C1500000C1500000C150000BB
:1001C0000C1500000C1500000C1500000C150000AB
:1001D0000C1500000C1500000C1500000C1500009B
:100800006F9F20000E7F24000E0188000000000072
:100810000C00070000352100010020001100070036
:10082000000020000000E000020032000000020092
:100830000000000014120200000000000040DA0076
:100840000000FE004440A900000C20000000E00071
:100850000300320000002000A00188004440A800EE
:100860000000060091018800800078000000EB0085
:1008700015003700E280400032A0B4009101BA00B8
:10088000E280400032A0B4009102BA00E280400051
:1008900032A0B4000002EB00472BDE00F507B200E7
:1008A000602CE10004003A000059EB008301E900EC
:1008B000FDFF3E00040037006128E1000100320026
:1008C0000082EB00040007001101BA000200E00002
:1008D000E8FF3A00000006003159BA008301E90040
:1008E0000C0032002159BA008301E90008003200EF
:1008F0000400E00003003A00E280400032A0B400AF
:10090000F5FF370011D9BA008301E900FAFF3A0078
:100910008100E800E180400032A0B4000000060041
:1009200010850000DC840000B684000014850000FF
:1009300006000000FF09000001A1000001190000ED
:10094000012900004015000000260000FF00000003
:1009500075080000954000008100000019010000AA
:100960002940000091000000C000000026030000A4
:10097000550000005300000042000000200000006D
:100980004800000049000000440000002000000072
:10099000420000006F0000006F00000074000000C3
:1009A0006C0000006F0000006100000064000000A7
:1009B0006500000072000000340300004D000000DC
:1009C0006900000063000000720000006F0000007A
:1009D0006300000068000000690000007000000073
:1009E00020000000540000006500000063000000CB
:1009F000680000006E0000006F0000006C00000046
:100A00006F00000067000000790000002000000077
:100A1000490000006E000000630000002E0000008E
:100A2000040300000904000009020000290000007E
:100A30000101000000C000003209000004000000B5
:100A40000002000003000000000000000921000077
:100A50001101000000010000221D0000000700003D
:100A600005810000034000000001000007050000B0
:100A7000010300004000000001000000120100001E
:100A8000100100000000000000080000D804000071
:100A90003C00000002000000010200000001000014
:100AA0009EC0A9000080EB007024880050248800BC
:100AB0008000EB00512588006125880031258800E1
:100AC000412588008644A900F00920008024880080
:100AD000602488008804A800008020004800DE0010
:100AE000C0248800048020006011B8004208DD00A6
:100AF000040040000288BE008100E800E48F50003E
:100B0000FAFF3A009424A8009624EF0094A4A900C8
:100B10009424A900028D2000124178008300200057
:100B20008040EB0007003700532488008000FD0060
:100B3000C2E8B700C3E8B700C4E8B7008000FD0012
:100B4000014178008AC4BF000038A300F6FF3A00D4
:100B500002007800D0E8B70010002000104588009F
:100B6000004588000000EB00A0468800C0468800D1
:100B700050468800848B2000C28B20008000EB0050
:100B8000758A2000538A2000011A78000119780024
:100B900001F07A0001F079000000E800E20F500057
:100BA000F9FF3A0040802000C0458800D0002000B6
:100BB00050258800808920001040880080C0B30044
:100BC00000E8B70040C8B30001E8B70001007800B2
:100BD000C7E8B70041468800000006008000EB002F
:100BE00051468800010178004007200057060700A1
:100BF0008284A90000012000002488000000060073
:100C00008284A800000120005024880010002000E9
:100C1000504688000001EB008000EB0050072000E8
:100C20004A063700A208E2001B003A00100020002C
:100C300010458800014580000100E00016003A00E0
:100C400000458800B0C8BF00E24F500006003A00DF
:100C5000C04580000148780081CCB300C0458000C9
:100C60001140980000000600E14F50000A003A00D1
:100C7000AA28EF0081C0B3009045800001487800A9
:100C800081892000904580001100980001C8B300C0
:100C9000904580001140980000000600AAC4BF00E3
:100CA0000018A3000D003200A24580009240900081
:100CB00000C8B30080CF500007003A00C045800054
:100CC0009040900040C8B30080CF500002003A002E
:100CD0006840400010419800AA24A90000082000A4
:100CE00050248800000006008081FB000382410040
:100CF0000180FB00000042004200DD000280200075
:100D000002014000124090000074A10010419800C0
:100D10000104E00003003A00C08B2000023278009A
:100D20000300370083804100808B200082307800F0
:100D3000124090000064A0001041980000000600DE
:100D4000889FBE008A1F7800004478000145780023
:100D50008184FB000938A300020032008040EB00D0
:100D6000E1FF07000928A3000300320011C0B3000F
:100D700008407800DCFF07000880FB00000040000E
:100D8000A14A20000AF078004F0578004F04BE0009
:100D9000000006000104E000040032000080FB00B7
:100DA00000004000818B2000030037000080FB0022
:100DB00000004000C18B2000608278000400E00049
:100DC00002003A0004007800000006001440900081
:100DD0000064A2001042980012029800034A7800B2
:100DE000144090000044B20010429800144090005B
:100DF00081C8B300014070001042980004007800E0
:100E0000000006000004E0000C003A0081C0B300BE
:100E1000904580000148780081892000904580003D
:100E200011009800C1C8B30090458000114098009F
:100E3000E8C05000C04580000A0037000080FB0079
:100E4000000040008180FB00010040004200DD0006
:100E500001802000010040009040900042C8B30093
:100E600082C07000114098000000060080407800A9
:100E700094C4BF000058A3000E0032000181FB00A3
:100E800002014100808B20000001410092017800A6
:100E90001300BE00040420000500200000006200D2
:100EA000010020008089BE001200780010186A003E
:100EB00010906A00000006009146800083C0B300D5
:100EC000E78F500009003E0081417800B1C8BF00A3
:100ED00002003A0010C0B30003003700E14F500099
:100EE00002003A0020C0B300B1E8B7000380FB0065
:100EF0000080500090468800C0458000034878007C
:100F00000089200070458800D008AB000200320044
:100F10000341780012003700034178008041EB0064
:100F20000600370070458000714680003158780017
:100F300070458800714688000241E900834F5100E6
:100F4000F8FF3A00000006007045800071468000FE
:100F50003158780070458800714688000241E900E8
:100F60000204E000F8FF3A00000006000000EB0079
:100F7000A0468800C0468800008B200021C0B30036
:100F800090CF100009003A0081C0B3009045800066
:100F900001487800018920009045800011009800E8
:100FA00081CCB30090458000160037009EC8BF007A
:100FB0000080FB00F189200091407800C808DD0026
:100FC0008080700090468000808F500007003100C4
:100FD000E1892000914078008180FB009FC8BF001C
:100FE0004800DD000100700090468800B2FF070055
:100FF00001892000C04580001100980081CCB30019
:10100000C0458000114098000000060094A4A9008B
:10101000D0E8AB0018003A00C248E20009003D00E9
:1010200020C0B300B0E8B700D808E20001003A00E1
:10103000CEFF07000000EB00004588001045880047
:101040000000060081C0B300904580000148780090
:10105000818920009045800011009800C1C8B3002C
:101060009045800011409800E8C05000C0458000C5
:1010700011409800000006009848E2000B003D0077
:1010800010C0B300B0E8B700D408E20001003A0095
:10109000B6FF07000000EB000045880010458800FF
:1010A000D608E20012003A00DEFE370020C0B3008E
:1010B000B0E8B70081C0B3009045800001487800D7
:1010C00081892000904580001100980041C8B3003C
:1010D00090458000114098000000EB00004588001A
:1010E00010458800D608E20001003A00CDFE070056
:1010F00000000600A045800090417800318C20005F
:10110000914078008180FB00C4C8BF004800DD002A
:10111000810070000380FB00810F50000100360049
:10112000814178000380FB0000805000C3E8B700D5
:101130004800DE00C4E8B7000002EB00068920008A
:10114000F50F20000F003700018C2000914078003F
:101150008180FB00C1C8BF004800DD0001007000B5
:101160008280FB0061587B00850060008000FD00EC
:10117000C0E8B7008000FD004800DE00C1E8B7000D
:101180000402E80004417800834F5200EEFF39006A
:10119000318C2000914078008180FB00C4C8BF00E2
:1011A0004800DD00010070000F00320081C0B30074
:1011B000904580000148780001892000904580001A
:1011C00011009800A04580001040900081CCB30031
:1011D0000068A3000100320081C8B3009045800080
:1011E000114098000000060081C0B30090458000C7
:1011F0000148780081892000904580001100980006
:1012000041C8B3009045800011409800518C2000E7
:10121000914078008180FB00C6C8BF004800DD0017
:10122000010070000100320000000100C2E8A900C6
:10123000D608E20001003A007AFE0700000006002E
:10124000D0E8A8000000EB0060258800800078004E
:10125000048020006011B8004208DD000400400056
:101260000288BE008100E800E48F5000FAFF3A00D7
:101270009424A8000000EB00738A20008040EB005B
:10128000528A200001F07900017079000000E80026
:10129000E20F5000FBFF3A0001007800B6E8B7000B
:1012A0009424A90040802000C045880000802000D0
:1012B000A0458800904588009AC8BF00C7E8B700DD
:1012C00002003A0000012000050037001200200053
:1012D000718C2000100020009C04070000022000F8
:1012E0004046880000000600818920009140780077
:1012F00000C8B30080CF500027003A0000CCB300F4
:10130000D0E8B7009BC8BF00E24F50000800320091
:10131000E34F500011003200E14F50001D003A0031
:10132000E053280070468800200120001500370097
:101330009AC8BF000080FB000000400061492800FF
:10134000E08078007146880021409000D2E8B70024
:1013500031409000D3E8B700000006009AC8BF00F3
:10136000E24F500009003E009AC8BF000080FB0019
:101370000000400001492800608078007046880025
:101380001080FB009046880000000600D068EF0047
:1013900000000600D068EF00000006000040EB00EF
:1013A00090E8B70091E8B70098C8BF007F006000E0
:1013B000E10F50000B003200E20F50000B00320032
:1013C0000000E0001C003A00D0E8A8009008A80047
:1013D00060468000E10F500017003A009028A800F6
:1013E00015003700D0E8A80013003700D0E8A800A7
:1013F0009C48E200050035009CC8BF006F006000FB
:1014000000004000C18B2000040037009CC8BF00D2
:101410006F00600000004000818B20006080780039
:101420000140280010806000810F500002003A0047
:1014300010C0B30090E8B700D0E8AB000500320060
:101440000089200070468800D008A80020C0B300A2
:10145000D2E8B70000000600008B200021C0B300D6
:1014600090CF100001003A0022FF3700B068EF0073
:10147000AA08E2000A003A0081C0B300904580004B
:101480000148780081892000904580001100980073
:10149000C1C8B300904580001140980000000600CC
:1014A000AA28EF0000000600881F7800C0458000D1
:1014B000104090004600DE0061046000404680005D
:1014C000E80F500008003A009AC8BF000080FB00F7
:1014D000B0248800000120009604E20001003A00D8
:1014E0004000200040468800008B200011C0B3005F
:1014F00090CF100011003A0000892000C145800003
:10150000900098006CFE0700108B200021C0B300F3
:1015100090CF100002003A0041C8B3000400370029
:1015200081C8B3000804E00001003A0081CCB30098
:10153000C0458000114098000C003700C248E2000E
:1015400009003D00518C2000914078008180FB0013
:10155000C6C8BF004800DD00010070000100320075
:1015600000000100C2E8A900B068EF004F04780055
:10157000000006009AC8BF00E14F50000B003A007F
:1015800098C8BF007F40600008003A00D0E8A8007B
:1015900099C8BF00E34F500003003A00100020003C
:1015A0006046880001003700CC28EF009A48E2002E
:1015B00067003A0098C8BF007F406000E24F5000CB
:1015C00063003A009CC8BF006F40600060003200BA
:1015D0009CC8BF006F006000E10F50005C003C0041
:1015E0004146800000022000808F500058003A00E1
:1015F000D0E8A8009C48E200090035009CC8BF0064
:101600006F00600000004000C18B2000E081780086
:101610009CC8BF006F006000518A2000080037009E
:101620009CC8BF006F00600000004000818B20005C
:10163000E08178009CC8BF006F006000718A2000C4
:1016400060C178009C48E200050035009CC8BF00DE
:101650006F00600000004000C18B200004003700D4
:101660009CC8BF006F00600000004000818B20001C
:1016700003B0780099C8BF00E34F500012003A0051
:101680001300E0000B003D009C48E2000400350020
:101690009CC8BF006F006000518A20000300370023
:1016A0009CC8BF006F006000718A200001004000EC
:1016B0001014A0001340900041C8B3000140700016
:1016C00090419800000006000218A30002003A00B2
:1016D0001300E00014003D009C48E20004003500C7
:1016E0009CC8BF006F006000518A200003003700D3
:1016F0009CC8BF006F006000718A2000010040009C
:101700001014A10013409000B047B2000064A00084
:1017100090419800220020008300780050002000B3
:101720008A0307000400370013409000B047B2005E
:101730000064A000904198009CC8BF006F0060004A
:1017400000004000A14A2000010040001014A10048
:101750000000060098C8BF000046B20032003A0000
:1017600099C8BF000080FB0001002000EB0F500073
:10177000E08F58002C003E0000600100130037008D
:10178000130037002800370011003700260037000B
:1017900006003700090037001F0037000900370036
:1017A000070037000B00370014003700D0E8A8000E
:1017B000800020004046880000000600CAFE370076
:1017C0009FFE3700708C200006003700F3FE3700C4
:1017D00068FF37009CC8BF000080FB00618B2000C1
:1017E0000100400070468800D008A80010C0B30077
:1017F000D2E8B700D0E8A80000000600D0E8A800B2
:101800009CC8BF000080FB00618B2000A2892000E3
:1018100012F07800000006000001EB008000EB00F1
:10182000200020004903070000000600881F780000
:101830008041EB0003007800B1E8B7000004EB0042
:10184000B8468800A8468800C846880058458800E1
:1018500003007800B0E8B700C14580001140900057
:10186000F2C7B3000240600090409800C14580007C
:101870001140900002406000904098009145800027
:101880001140900002406000904098008001FD00EF
:10189000D0E8B7008001FD00984688008001FD0077
:1018A000C2E8B700C3E8B700C4E8B7008001FD0094
:1018B000A8FF0700080178008800780030002000A9
:1018C00022030700D1FD07004F0478000000060046
:1018D000D0C2B300A4E8B700ADC8BF000080FB00D1
:1018E000000178000220A1000200E00019003A0087
:1018F000C00FB2000180200001004000A045880018
:101900009045880010409000C043B20041C3B3002E
:10191000814F50000E003A0083892000A1458000CD
:10192000110090001040780000F179001100900043
:101930000000E800900098000201E800E80F510064
:10194000F6FF3A00A045800013009800B7FF37006B
:10195000C1FE3700E80F510001003A00D2FE070037
:1019600000000600881F7800DAC2BF000038A3001C
:1019700005003A000000EB00A024880060248800E5
:10198000404688007F003700C808E20010003A0097
:101990000000EB00A0248800602488003025880027
:1019A000402588008644A900F00920008024880092
:1019B00060248800010037009404A80094C4BF008C
:1019C0000008A300FCFF3200100020004046880001
:1019D00040468000E10F500009003A0094C4BF0067
:1019E0000068A30006003A008AA4EF008C24EF00F0
:1019F0008C04A8008C84A8002000200040468800A9
:101A000080C4BF000048A3000600320082C4BF00AB
:101A10000048A300030032000001200000248800D9
:101A20006EFC070088C4BF000018A30055003A00F0
:101A30008AC4BF000008A300080032008CC4BF00A5
:101A40000008A3000500320015FC0700400020003C
:101A50004046880010002000502488008AC4BF003F
:101A60000048A300060032008CC4BF000048A30059
:101A70000300320062FC07000001200050248800AF
:101A80008AC4BF000028A3000F0032008CC4BF002E
:101A90000028A30004003200120020008000EB00A8
:101AA00030072000A90207004000200050248800D1
:101AB000A4C8BF00030032000040E900A4E8B7005A
:101AC00001003A0057FC07008A44E20005003D008F
:101AD0008CC4BF0001C8B3000140600001003200A7
:101AE0006EFC07008AC4BF000018A3000A00320081
:101AF0008CC4BF000018A3000700320012002000B1
:101B00008000EB00F0FF2700900207008EA4EF009A
:101B1000200020005024880040468000E30F500041
:101B2000180036008CC4BF000038A3001500320036
:101B300048C0B3008AC4BF000038A30011003200BF
:101B400090248000ADE8B7000080FB004400DE0078
:101B5000ACE8B70081002000512488000004E000B8
:101B600002003A005AFF0700040037000001EB00B2
:101B7000D18A200020072000740207000844E900F1
:101B8000ECFF3A008EC0A9004F0478000000060068
:101B900000002300CA22B700F0FF2C00C822B600C4
:101BA000C9C2A8007000A8008000EB00914F880017
:101BB000814F880012002000724F880030C5B300AA
:101BC000ECE9B70000E02400404F8800100020003E
:101BD000504F8800020078009EE9B70001007800AD
:101BE000E7E9B700A0A9EF00A2A9EF000100780083
:101BF000A4E9B700000006002CA3EF00D862A800FB
:101C0000A7FB0700E2FF37009A09E20002003A0052
:101C100000712200D04C8800D24C80000201E90003
:101C2000D24C880088C4BF000018A3001A003200FC
:101C30000200E0005A003A00CBC2BF000080FB0067
:101C40004400DE000004A200614060004400DD00AA
:101C5000B12C2000914078000144A10080C07000A8
:101C600001007800CBE2B70000000000CBC2BF004B
:101C70004400DE00610060004500DD00B12C200062
:101C8000914078000154A10080C0700001007800EC
:101C9000CBE2B70000000600414680000100E000F2
:101CA0000C003200E18F500002003A00CB82A90004
:101CB00003003700E28F500004003A00CB82A800F6
:101CC00000000000CBA2A90000000600E48F500035
:101CD00002003A00CB82A90010003700F08F5000BC
:101CE00011003A000200E0002D003A00CBC2BF0014
:101CF0000080FB004400DE000004A20061406000A0
:101D00004400DD00B12C2000914078000144A10086
:101D100080C0700001007800CBE2B7000000000036
:101D2000CBA2A8000000060000022000808F500017
:101D30001B003A000200E00019003A00CBC2BF00CD
:101D40000080FB004400DE000004A200614060004F
:101D50004400DD00B12C2000914078000144A10036
:101D600080C0700001007800CBE2B70000000000E6
:101D7000CBC2BF000080FB004400DE000004A200D4
:101D8000614060004500DD00B12C200091407800EA
:101D90000154A10080C0700001007800CBE2B700C0
:101DA00000000600E6C9BF000080FB000100200023
:101DB0004A09DD00C600DE00810071004A00DD0036
:101DC00022042400023B88008000FD0032E0B700BE
:101DD0008000FD000081EB000208BB001000FC0049
:101DE00050052000303B8800A00A2000303B8800CE
:101DF00061E7A800000000000000000001C8B30077
:101E000061C7BF0001406000FDFF3A00000006000E
:101E100030002400003B8800639A2000044D8000BD
:101E2000154D8000180037000080FB0001002000E5
:101E30000000520081805A008000FD0032E0B700AF
:101E40008000FD001308BB00130190000288BB0056
:101E50001000FC0050052000303B8800A00A200044
:101E6000303B880061E7A80000000000000000008F
:101E700001C8B30061C7BF0001406000FDFF3A0028
:101E8000A4E9ED00E4814100A4C9BF00E6FF3A00E7
:101E900061C7A900000006000400FA00E0BF9F002F
:101EA000F1BF9F0021032000914078006FF8970058
:101EB00032E0B7006FB897009081BA001001BA0005
:101EC0000100780032E0B7000200BE000080FA0096
:101ED00000000600889FBE00E749E20022003A00A9
:101EE000804F80000000E0000300320010409000AE
:101EF0000004E0003F013500904F80000000E0004A
:101F000003003200104090000004E0003901350069
:101F10000000EB00A3952000A28D2000010420000A
:101F2000E27178000000E800810F5000FCFF3A00E9
:101F3000804178008040EB0010C0B30095FB0700A3
:101F4000904F880010C0B300E7E9B700A0912000CF
:101F50000041EB00A195200002587800810F50004D
:101F600024013200FCFF37005AC9BF00E54F500082
:101F70007000320006003E00E34F50004A0032007D
:101F80005C003E00E24F50001A013A0006003700A4
:101F9000E74F5000BB003200B6003900E84F500058
:101FA00014013A000D01370021C0B3000100780090
:101FB0001AE9B70080C3B3001BE9B700010078003D
:101FC0001CE9B70014C0B300040078001DE9B70095
:101FD0008041EB00030078001EE9B70040C1B30068
:101FE0001FE9B7008001FD0020E9B70021E9B70033
:101FF0008001FD0000C02E00F1FF2F00464F800041
:10200000574F8000060040008780480022E9B70053
:102010004801DE000200780023E9B70001007800E3
:1020200024E9B7004808DE0025E9B70080C0EB00CE
:102030000100780026E9B7009E49E20013003A004B
:1020400030C0B30026E9B70080CFB30027E9B7005E
:1020500070C5B30028E9B7000400780029E9B7008B
:10206000030078002AE9B70080C0B3002BE9B7006D
:102070008001FD002CE9B7002DE9B7002EE9B7007B
:102080008001FD00010078002FE9B700804F80003B
:102090000000E000C9003200104090000004E000A1
:1020A000D4003500C50037005B49E20008003A0063
:1020B00050C5B300ECE9B700877F2500474F880083
:1020C00017002000574F88009E69EF00C1003700BD
:1020D00030C5B300ECE9B70000E02400404F8800B1
:1020E00010002000504F880010C0B3009EE9B700D8
:1020F000B800370050C0B300E6E9B700030037006E
:1021000028FF070017FE0700E669EC00619E20002B
:10211000914078008180FB00ECC9BF000080FB008B
:102120000000E800808F5000F5FF350061C7A9006E
:10213000A8003700004D8000114D8000E10F4000E5
:10214000E08F48000E003A00B195200091407800E1
:102150008180FB005CC9BF004800DD000101700008
:10216000D1952000914078008180FB005EC9BF00BE
:102170004800DD0081017000024D8800134D880089
:10218000B1952000914078008180FB005CC9BF00C0
:102190004800DD0001017000D195200091407800D9
:1021A0008180FB005EC9BF004800DD008101700036
:1021B0000004EB00004D8000114D8000820F5000A4
:1021C000838F58002300320082003700449A200099
:1021D000144278008481FB00838141008180FB00F0
:1021E000800320000100500022002000110009009F
:1021F0000200D8008580FB00010040000000400084
:1022000021962000010040009080FB0010409000CB
:102210004800DD0001007000619A200080B1780064
:102220000442E80004007800A4E9B700064D8000ED
:10223000174D800061034300E0834B00064D88008A
:10224000174D8800FC4F520001003A00F0FE0700D5
:102250000804E80088427800F19520009140780059
:102260000180FB000000D100804F5400D7FF3900EF
:1022700058003700E6FE0700A0A9EF00A2A9EF0072
:1022800054003700804F80000000E000030032005F
:10229000104090000004E0005600350070C0B3000C
:1022A0001AE9B700B1952000914078008180FB00C9
:1022B0005CC9BF004800DD0001017000D19520001D
:1022C000914078008180FB005EC9BF004800DD00BE
:1022D00081017000020078001BE9B7004810DE00A1
:1022E0001CE9B700030078001DE9B7004818DE00BC
:1022F0001EE9B7005FC9BF001FE9B7008044EB00CB
:1023000029003700B3952000934178008381FB00BA
:10231000C2952000124178004811DD0003007100D1
:10232000D3952000934178008381FB00E295200043
:10233000124178004811DD00830071000981FB0023
:10234000030020000000410081804900D2FE070008
:102350008981FB00F2952000124178000281FB0088
:102360000201D100828151008381410004042000D8
:1023700003024200A891200008024200F50F20004D
:10238000054A60004801DE00124298008583600023
:102390002304B0008881410085C963004838DE000D
:1023A0009041980089C4E8005FC9BF000080FB002D
:1023B0000000D10080CF5400D2FF390003C4B30025
:1023C000A291200011C0B3000140780071FA07000B
:1023D000804F8800E769EF00060037009424EF0083
:1023E0000080EB00000000000000E900FDFF3A0063
:1023F0000000FE004F04BE0000000600EE09E200EF
:102400000100320000FE070040468000FF0F500030
:102410000400360088C4BF000018A30001003A0081
:10242000ACFE0700000006002CA3EF00C9C2A80004
:102430007000A800F00F20000000E900FEFF3A0045
:10244000CBC2BF000068A30005003200003A800044
:102450003008B20002003200001404000000000046
:10246000620920008000EB00CBC2BF000068A3001F
:102470000200320000140400000000008100E800A7
:10248000E18F4000F8FF3A000201E900F5FF3A0051
:10249000D9FD070033FD0700D8FF0700FDFF370017
:1024A0000000060000000600000006000000060014
:1024B0002F00370000000600D1C1B30010C0B300E8
:1024C0001FFA070003C4B300A28D20008040EB0078
:1024D00010C0B3002FFA0700904F880000000600DC
:1024E00060468000E10F500017003A00504680001F
:1024F000E10F500014003A008824A9008000EB008E
:102500005146880000E12000E04C8800010078007E
:1025100001E120000000E800810F5000FDFF3A00BB
:102520009444A80080702000E04C88000000EB007C
:10253000817020000000E800810F5000FDFF3A008C
:102540009C29EF009444A90000000600E10F500010
:1025500003003200E30F500004003A00020037008D
:10256000D5FF070001003700D1FF0700100005006C
:1025700098C8BF007F406000E14F500047003A001C
:102580009C48E20045003A0099C8BF00E64F500061
:102590001B003A00B1892000914078007B40400048
:1025A00080CF5000040032000040E80080CF50008F
:1025B00013003A0008003700708C200011C0B300EF
:1025C00090CF10000E003A0060522800704688003C
:1025D0009000200007003700708C200011C0B3006D
:1025E00090CF100006003A0080492800704688000D
:1025F000D00120009046880000CCB300D0E8B7009E
:1026000098C8BF000046B20001C2B300814F50001D
:1026100022003A0099C8BF00E34F50001400320076
:1026200003003E00E24F50001C003A000500370056
:10263000EA4F500009003200EB4F500017003A00FB
:1026400012003700509F20007046880010002000C4
:102650009046880010CCB3000A00370000C8B300D1
:10266000D0E8B7009BC8BF00F5E9B700000006003E
:10267000409F20007046880010002000904688008F
:1026800010C8B300D0E8B7000000060000C8B300CF
:10269000D0E8B7009AC8BF00F4E9B7000000060010
:1026A000EE0900000600000002000000010000002A
:1026B000000000009A090000540000000000000023
:1026C000DA080000C000000000000000F40900006B
:1026D000020000000000000010080000CA00000016
:1026E00000000000000800001000000000000000D2
:1026F000000000000040DA000000FE00FFFFFF00C5
:10270000FFFFFF00FFFFFF00FFFFFF00FFFFFF00D5
:10271000FFFFFF00FFFFFF00FFFFFF00FFFFFF00C5
:10272000FFFFFF00FFFFFF00FFFFFF00FFFFFF00B5
:10273000FFFFFF00FFFFFF00FFFFFF00FFFFFF00A5
:10274000FFFFFF00FFFFFF00FFFFFF00FFFFFF0095
:10275000FFFFFF00FFFFFF00FFFFFF00FFFFFF0085
:10276000FFFFFF00FFFFFF00FFFFFF00FFFFFF0075
:10277000FFFFFF00FFFFFF00FFFFFF00FFFFFF0065
:10278000FFFFFF00FFFFFF00FFFFFF00FFFFFF0055
:10279000FFFFFF00FFFFFF00FFFFFF00FFFFFF0045
:1027A000FFFFFF00FFFFFF00FFFFFF00FFFFFF0035
:1027B000FFFFFF00FFFFFF00FFFFFF00FFFFFF0025
:1027C000FFFFFF00FFFFFF00FFFFFF00FFFFFF0015
:1027D000FFFFFF00FFFFFF00FFFFFF00FFFFFF0005
:1027E000FFFFFF00FFFFFF00FFFFFF00FFFFFF00F5
:1027F000FFFFFF00FFFFFF00FFFFFF00FFFFFF00E5
:102800001015040000000000F20F04000100000099
:10281000F20F040001000000F20F040001000000AC
:10282000F20F040001000000F20F0400010000009C
:10283000F20F040001000000F20F0400010000008C
:10284000F20F040001000000AABE04000000000016
:10285000F20F040001000000F20F0400010000006C
:10286000F20F040001000000F20F0400010000005C
:10287000F20F040001000000F20F0400010000004C
:10288000F20F040001000000F20F0400010000003C
:10289000F20F040001000000F20F0400010000002C
:1028A000F20F040001000000F20F0400010000001C
:1028B000FABF040000000000F20F04000100000055
:1028C000F20F040001000000F20F040001000000FC
:1028D000F20F040001000000F20F040001000000EC
:1028E000F20F040001000000F20F040001000000DC
:1028F000F20F040001000000F20F040001000000CC
:10290000F20F040001000000F20F040001000000BB
:10291000F20F040001000000F20F040001000000AB
:10292000F20F040001000000F20F0400010000009B
:10293000F20F040001000000F20F0400010000008B
:10294000F20F040001000000F20F0400010000007B
:10295000F20F040001000000F20F0400010000006B
:10296000F20F040001000000F20F0400010000005B
:10297000F20F040001000000F20F0400010000004B
:10298000FABE040000000000F20F04000100000085
:10299000F20F040001000000F20F0400010000002B
:1029A000F20F040001000000F20F0400010000001B
:1029B000F20F040001000000F20F0400010000000B
:1029C000F20F040001000000F20F040001000000FB
:1029D000F20F040001000000FCDA04000000000017
:1029E000F20F040001000000F20F040001000000DB
:1029F000F20F040001000000F20F040001000000CB
:102A0000F20F040001000000F20F040001000000BA
:102A1000F20F040001000000F20F040001000000AA
:102A20008F0122000E7F24000E01880000000000AC
:102A30000C00070040D22000110020001100070008
:102A4000000020000000E000020032000000020050
:102A500000000000C0C80200000000000040DA00D2
:102A60000000FE004440A900202320000000E000F8
:102A70000300320000002000A00188004440A800AC
:102A80000000060091018800800078000000EB0043
:102A900015003700E280400032A0B4009101BA0076
:102AA000E280400032A0B4009102BA00E28040000F
:102AB00032A0B4000002EB00472BDE00F507B200A5
:102AC000602CE10004003A000059EB008301E900AA
:102AD000FDFF3E00040037006128E10001003200E4
:102AE0000082EB00040007001101BA000200E000C0
:102AF000E8FF3A00000006003159BA008301E900FE
:102B00000C0032002159BA008301E90008003200AC
:102B10000400E00003003A00E280400032A0B4006C
:102B2000F5FF370011D9BA008301E900FAFF3A0036
:102B30008100E800E180400032A0B40000000600FF
:102B4000F6FB04000000000060F404000000000038
:102B500058F404000000000050F4040000000000DD
:102B6000D2F50400000000000AFB04000000000091
:102B7000AEFA040000000000800078001104B100EB
:102B8000030035009101B10001003C000050A0009D
:102B900000000600800078001106B1000300350037
:102BA0009101B10001003C000050A10000000600AE
:102BB0000A00FA0080017800E20F500028003E0071
:102BC00060DD8000E10F500008003200802320000B
:102BD0000000E0000500320004232000252320002F
:102BE00046232000800178000400370004222000E2
:102BF000252220004622200083222000144090003D
:102C00000004E000040035008009EB00144090004F
:102C10000074A00010429800154090000028A30006
:102C200003003A00154090000024A0009042980054
:102C30008001EB0007003700154090000008A3005A
:102C4000FDFF320063C078000000FB00000B78003D
:102C50008301E800828F5100F7FF3A000800370037
:102C600030002000B0BF9F00C3BF9F00D1BF9F00B6
:102C7000E2BF9F006A80570000C0DA006FB997007A
:102C8000020078000080FA0000000600020AB90085
:102C9000001BB9000200B80081004200810043001F
:102CA000000006006022B800060220000000D000EC
:102CB0008180D2000482D2008582D2000000A00070
:102CC0000202520083825A000300310002024200D5
:102CD00083824A000000A1000603E900F3FF3A00E6
:102CE00000000600EFFF07000400BE000000060021
:102CF000811F78000100E00002003D00600010002C
:102D0000E08018000300E00002003D0060011100B7
:102D1000E0811900F3FF07004F00E00002003B00D4
:102D200060001000E080180000000600839F68002B
:102D30000100E00002003D0060001000E08018008B
:102D40000300E00002003D0060011100E081190075
:102D5000D4FF07004F00E00002003B0060001000BD
:102D6000E0801800000006004F89DE008201780034
:102D7000BE0237002800FA00889FBE008A9FBE006E
:102D80008C9FBE0003866B00EF0207006400E10029
:102D9000440032006408E1004A0032006100E100B2
:102DA000460032006108E10049003200EC064700AD
:102DB0006000B8003D02BE003D03BE00F48657002F
:102DC0006011B8003D04BE003D05BE007D0320003B
:102DD0000B0037000000A0008D06E9001300320050
:102DE0000402420085824A0006034B0087834B00A1
:102DF00000004000818048000201490083814900B1
:102E00000802520089825A000A035B008B835B0030
:102E1000F0FF3B000802420089824A000A034B008F
:102E20008B834B008D06E900EDFF3A00848272002F
:102E300086827200F707B2008782720001003200BA
:102E4000150020001E0490003E0B90000603540065
:102E5000E63FB0000368A300070032000000A700AF
:102E60000500A0008301D1000281D3008180D3003E
:102E70000080D3000603E8008301D1000281D30063
:102E80008180D3000080D3000002EB000482D200D6
:102E9000C602070003F0A1000CF0A70003F0A00099
:102EA000BD023700640247006408E100B702320047
:102EB0003400BE003401BE00F6FF37006108E100B7
:102EC000B20232006011B8006000B800F1FF3700B4
:102ED00003FF270002002000FBFF37001E00FA005E
:102EE000889FBE008A9FBE008C9FBE000404BE0067
:102EF0000605BE00009FBE000297BE00D702070075
:102F0000040678000800BE000A01BE00D3020700D4
:102F10008406780004002000E202070005003A0061
:102F20008D02B30014002000DE02070001003A0009
:102F3000F8866E000802BE000A03BE00F900070012
:102F40003E00BE002E01BE00930232000BF0A7002F
:102F50000DE0A00003F0A7000DF0A0000D08A300F5
:102F6000D6003A003E02BE002E03BE0007F0A100CC
:102F700037079800EB0007000DF0A600CF003200E5
:102F800001003C000DD0A0008D4F76007F02330081
:102F90006000B8006011B8006260E100C90039004B
:102FA000D1003E000D28A300D2003A000DF8A30086
:102FB000080032000D58A300D80032003E02BE00C7
:102FC0002E03BE00D70007003E00BE002E01BE004B
:102FD000C00032003E00BE002E01BE006A02470063
:102FE000F4020700009FBE000297BE000DF0A7008C
:102FF0000D30A6000DF0A1006D07980067FE2300BC
:10300000E6092A00F5672600D4BC23000603070062
:1030100009003D003E00BE002E01BE00140020004D
:10302000060307005E029000009FBE000297BE00EC
:103030000402E900540798005E0090006100B900A6
:1030400049FF070070079800010F9800120F9800C1
:10305000230F98000802BE000A03BE00BF0007004D
:10306000330107000006BE000100E00002003D0041
:1030700060001000E0801800F2FF2700820F50006F
:10308000E08F580083003E000C00BE0036FF0700B2
:10309000300F9800410F9800520F9800630F98006E
:1030A0000800BE000A01BE00210107004007980089
:1030B000F23F2000820F5000E08F580005003C00D6
:1030C00012C02F00F3FF2F00820F5000838F580093
:1030D0000A003D005E0690000C00E0000300320094
:1030E00001003C000201EA00020678006000B8001E
:1030F0006011B80040079800270037000800BE00A4
:103100000A01BE00411ADD004522DE00F43FB10095
:103110008400B10063020700809FBE00829FBE0052
:103120007E0290008E0A90001E0B9000AE0B900065
:103130008A0007003E0A9000CE0A90005E0B9000C5
:10314000EE0B9000830007004F03BE004F02BE004D
:10315000809FBE00829FBE000800BE000A01BE0024
:103160007C0007007E0290008E0A90001E0B9000EB
:10317000AE0B9000790007004F03BE004F02BE0067
:103180001701070067FE230026E42200A5EF2F00A9
:10319000F49E230071000700809FBE00829FBE0046
:1031A0004E0090006100B900EFFE070003F0A2009E
:1031B0000802BE000A03BE0009010700809FBE008E
:1031C000829FBE003E00BE002E01BE00CE02070060
:1031D0004F03BE004F02BE00600007004F03BE0059
:1031E0004F02BE00FE0007005F030700809FBE0085
:1031F000829FBE004D000700CE0690000DF0A70094
:103200008D06EA00090037003E00BE002E01BE0018
:103210003E02BE002E03BE0050000700009FBE000D
:103220000297BE000800BE000A01BE003E02BE00BA
:103230002E03BE000D00A700480007000004BE00DA
:103240000205BE008D06D100EFFF3A006E0290002D
:1032500004E0A600060037000002BE000203BE0024
:1032600032000700C3FE07000004BE000205BE00D6
:103270004F03BE004F02BE00380007000C0278006A
:103280006E020700EE0690000DF0A70003F0A2000A
:10329000C1013700EE069000290007002600070054
:1032A0000DD0A7000DC0A0000DE0A7000DC0A2002A
:1032B0000DC0A60003002000F2FF37001B0007002E
:1032C000B50137000BF8A300020032001E00070012
:1032D000190007000DF8A300AF0132000D30A70060
:1032E00003F0A200AC0137000BF8A300F9FF3A008D
:1032F000F7FF37003E02BE002E03BE0009000700A4
:10330000EEFF320001003C000BF0A2000A000700B3
:103310000BF0A600030020009F0137000A00070001
:103320009A013700010007003F02370003FF230026
:103330006000B8000200050003FF2700FCFF370013
:10334000200220000100370010022000A0D58800D4
:103350000000060007F0A200A10037002800FA00D4
:10336000889FBE008A9FBE008C9FBE0003866B00B4
:10337000750107000028A30064003A000128A3009B
:1033800067003A000008A30062003A000108A300A9
:1033900065003A001E009000BE08900081064000C3
:1033A000ED3FB100F4805700EE019000111AB80013
:1033B0008E099000311BB8009E099000311CB800A6
:1033C000511DB800F485570046000700FE0190002B
:1033D0003A0007008B85E8003E0007008E09900048
:1033E00040000700EE019000340007008B85E800E4
:1033F000380007008E099000400007009E099000E9
:103400001B18B800890440000A854800FE0190009E
:10341000340007008B85E80038000700EE019000BB
:10342000300007008E0990001B18B8008904400086
:103430000A8548000A98A30008003A0004024200E6
:1034400085824A0006034B0087834B0008044C002A
:1034500089844C000A054D008D06E90084827200C3
:10346000850273004C3ADD008502720001003200D3
:1034700015002000443ADE001400B2004538DE009A
:10348000CB45DD000B007000C540DE00CB4DDD00FC
:103490008B8070004549DE00CB55DD000B017100CB
:1034A000C551DE000D0378004001070003F0A100C4
:1034B0000CF0A70003F0A000370137001B18B8007C
:1034C0008502400006834800E0834B0060044C0006
:1034D000070037001B18B800060340008783480028
:1034E000FAFF37001B18B800870340000884480023
:1034F000E0844C0060054D00000006001B18B80079
:103500000804400089844800FAFF37000108A3003E
:103510001E013A005800BE005801BE00E3FF37000C
:103520000008A30019013A0009047800F9FF3700E8
:103530001400FA00889FBE008A9FBE008C9FBE00C8
:103540000004BE000205BE00680047000A90BE00ED
:103550000890BE001C0307000070A7000BF0A1003C
:10356000304320009E02900080825200B0FE2F0067
:103570000028E10011003D00B0FC2F000028E10010
:10358000150034001E0990008E0890007E00900007
:103590000501B0000201D1008180D3000080D3007A
:1035A0008502E800FBFF3A000B00E000FA003B0058
:1035B00060001000E0801800F7003700F0FF2F00D7
:1035C000F1FF27000B00E000F3003B0001002800A2
:1035D00000002000F00037006000B800EE00370067
:1035E0002800FA00889FBE008A9FBE008C9FBE0004
:1035F00007067800878669000C003B00030478000A
:103600008704780008F0A10009F0A100840F5000A1
:10361000858F5800860F5900890F5C000300330026
:103620000CF0A20001003A000CF0A100C600070057
:103630006400E1005F003200780147006408E100A7
:10364000610032006C014700748557003200BE00F3
:103650001201BE003A04BE001A05BE001E0390000F
:10366000BE0A90008503530006003D000004FD00E3
:103670008104FD000205FD008305FD008703EA00CB
:10368000050378000DF8A300040032006004140064
:10369000E0841C0060051D00E0851D006022B8006C
:1036A0007D0320000D38E1008006EB000B0039009F
:1036B0004433DD00F300B2008301730039003700AA
:1036C000848272000D027800E10664008B85D100CF
:1036D0000A85D3008984D3000884D3008703E900D6
:1036E000F7FF3B0008004000898048000A014900BC
:1036F0008B81490004003B0060001000E08018004E
:1037000060011900E08119000358A300090032008C
:103710008D82720084827200610260008301D10098
:103720000281D3008180D3000080D3000603E8002B
:103730001B0037000348A30017003A000600E00012
:10374000170034000603E9000D00A3000000480044
:103750008180480002014900838149000348A30099
:103760000F003A000600E000090034000603E900FB
:103770000000400081804800020149008381490027
:1037800001003A000003EB000348A300F5FF3200FC
:103790006022B800020037008482720061826600F5
:1037A0008200070003F0A1000CF0A70003F0A000C6
:1037B00079003700640147006408E10002003A0024
:1037C0000DF8A30071003A003200BE001201BE00E5
:1037D000710037001400FA00889FBE008A9FBE0067
:1037E0008C9FBE000004BE000205BE0068004700BA
:1037F0000A90BE000890BE00730207000070A70088
:103800000BF0A1000BF8A30016003A009E029000F6
:103810003043200080825200B0FE2F000028E100DB
:103820000D003C00B0FC2F000028E1000D0034002A
:103830001E0990008E0890007E0090000501B000E7
:103840000201D1008180D3000080D3008502E8000E
:10385000FBFF3A0050003700010028000000200064
:103860004D0037006000B8004B003700889FBE0055
:10387000830478000300E0002C00350003003C00C6
:1038800000827000040271002600320036432000DE
:10389000C50020008383CF000A0039000541B10034
:1038A0008283CF00070039000541B1008183CF003A
:1038B000040039000541B1008083CF0001003900C8
:1038C0000541B10085C353006022B80012003200E8
:1038D0000A003B0084827200610260008301D10013
:1038E0000281D3008180D3000080D3000603E8006A
:1038F0008743E800F7FF3A00070037000000400068
:103900008180480002014900838149000603E900E3
:103910008743E900F9FF3A002400070009F0A700F7
:1039200003F0A0004F04BE0000000600600010007D
:10393000E080180060011900E0811900D3FF3B000E
:10394000033E2C00F7FF3700680447000294BE00D6
:103950000094BE00FC0447008694BE008494BE0020
:103960000900780018020700080078001602070016
:1039700099007800814F70000B003B000800BE00EA
:10398000380207004F00B10003003700F3FF2700A3
:10399000F2FF2F006110B9004F06BE004F05BE00B8
:1039A0004F04BE000080FA0000000600180020004E
:1039B00057002000080453000D003D0006002000C1
:1039C00097FC2F000740E1001E0034008482720043
:1039D000610260008301D1000281D3008180D300A5
:1039E0000080D3000804E800F8FF3A0047002000F8
:1039F0006104600005047400040464000D003200DA
:103A000061004000E080480060014900E081490019
:103A100003B8A500070032000603E8006538E1009E
:103A200004003A008301D1000281D3008180D300D9
:103A30000080D300F87F20000830E100030035004B
:103A4000080378006000B8006011B8004433DD005E
:103A5000F300B200830173000000060005FF270099
:103A600005826100070032000428E10001003200F5
:103A7000240005000600070001003A00440005008C
:103A80000408050002000700F9FF3A0014000500D1
:103A90006F826100810270008502710085027200F0
:103AA000000006001400FA00889FBE008A9FBE0036
:103AB0008C9FBE0004067800E80247008292BE0098
:103AC0008092BE0005007800BF0107006200E1009F
:103AD00033003A006000B8006011B8001E03900087
:103AE0000C035300F63FB100220035004B032000C9
:103AF0000B30E1002A003D00FB012000FAFF2F00FF
:103B00006154B9006C0147008B05D1000A85D300D0
:103B10008984D3000884D3000603E900FAFF3B0040
:103B20003200BE001201BE00000264008182640007
:103B300002036500838365000502720006027200BD
:103B400007027200160032000884EA008984EA0045
:103B50000A85EA008B85EA00000064008180640029
:103B600002016500838165006022B8001E03900099
:103B70008EFF0700DE03900007F0A70003F0A0000F
:103B80000082EB000400E0008E0290004F06BE00B1
:103B90004F05BE004F04BE000080FA000000060082
:103BA00064014700040020003200BE001201BE0084
:103BB000F4FF37001400FA00889FBE008A9FBE0001
:103BC0008C9FBE00040678000004BE000205BE0003
:103BD000680047000A90BE000890BE007A01070006
:103BE0006200E1000800BE000A01BE0004002000DF
:103BF0000B003A001E029000E43FB1006E009000FE
:103C0000FE0090000E0990009E099000F300B200A3
:103C100005FE2300858171000BF0A70003F0A000D2
:103C2000040E78005CFF37008F1FD1009B01070056
:103C30008F87E9000000E000000006001400FA0091
:103C4000889FBE008A9FBE008C9FBE00040678003D
:103C50000004BE000205BE00680047000A90BE00D6
:103C60000890BE00580107006200E1000800BE0095
:103C70000A01BE0023003A006E009000FE00900092
:103C80000E0990009E0990009E0290008502460059
:103C9000E47F20000428E10005003C00D4FC2F0054
:103CA0000428E10008003D00050020000100370065
:103CB000F57F200020022000A0D588006000B80019
:103CC0006011B8000A00370014002000048252007E
:103CD00007003D008301D1000281D3008180D30021
:103CE0000080D3000402E800FAFF3A00050020003B
:103CF000C42ADD00F300B200858171000BF0A7003B
:103D000003F0A00024FF37000800FA00889FBE00DF
:103D10008A9FBE008C9FBE0050FF07006420E10018
:103D20001DFF3E006220E1000300320087003500E5
:103D300003F8A30018FF320003F8A30087003A003D
:103D40000E0278009BFF07001E0678000004BE00EC
:103D50000205BE007A0007007EFD0700009FBE003E
:103D60000297BE000800BE000A01BE0067FE2300E5
:103D7000E6092A00F5672600D4BC2300700107007D
:103D8000090034003E00BE002E01BE006C0007009A
:103D900070FD0700009FBE000297BE000800BE0035
:103DA0000A01BE00030037000C06E9003E00BE0019
:103DB0002E01BE006200070068FD070060000700DA
:103DC00007FE07000002BE000203BE003E00BE0068
:103DD0002E01BE00E7FB07000004BE000205BE0086
:103DE0000002BE000203BE005CFD0700009FBE0093
:103DF0000297BE0017042C0006582D0075B624004B
:103E0000F4E02C00F6FD07003E02BE002E03BE00CB
:103E100052FD0700370724003608280055A12F005F
:103E2000E4672200EEFD07003E02BE002E03BE0046
:103E30004AFD070087082C00E6BF2000D5C02900F6
:103E400074072900E6FD0700809FBE00829FBE0028
:103E500097FE2B005641240065352B0094D22B0091
:103E60003E00BE002E01BE003CFD070007032400FB
:103E7000A624260065012200D4FE2A00D8FD0700F2
:103E80003E02BE002E03BE0034FD070007052C00D5
:103E9000F67F2000352B2100A4592B00D0FD070010
:103EA0003E02BE002E03BE002CFD07004F03BE00E5
:103EB0004F02BE00AFFB0700009FBE000297BE008E
:103EC0000802BE000A03BE0024FD07000802BE006F
:103ED0000A03BE00C2FD07000004BE000205BE00CA
:103EE0006160B900A0FB0700009FBE000297BE0002
:103EF000B7F22B0006012D0015C6250084CA20004C
:103F000016FD07000802BE000A03BE00B4FD07004C
:103F10000004BE000205BE003E00BE002E01BE0031
:103F200067FE2300060023006022B8000BFD070097
:103F30000802BE000A03BE00A9FD070096FE370076
:103F400007FE23006022B8000600050003FF2F00D3
:103F5000020020006000B8008FFE37001002200031
:103F6000A0D5880089FE37000800FA00889FBE00AF
:103F70008A9FBE008C9FBE000004BE000205BE00EA
:103F8000B6FE07006420E10083FE3E008A00320096
:103F90006708240026E42200A5EF2F00F49E2300EA
:103FA000E70007007A003C000800BE000A01BE00DE
:103FB00077082C0056382400D5462400341C2700EE
:103FC00019FF0700780035000800BE000A01BE0096
:103FD00003F0A10007C9230006002000050020000F
:103FE0000400200010FF0700710035000800BE002B
:103FF0000A01BE0077FF230076542100B552260047
:10400000E42F2800D5FC070007FE2300060020004F
:104010006022B80003F0A70007F0A00070FD0700C1
:1040200043FD07000006BE004FFB070003F0A2009F
:10403000009FBE000297BE0067FE2300060023001B
:104040006022B800C5FC07000802BE000A03BE00DB
:1040500063FD0700809FBE00829FBE003E00BE0041
:104060002E01BE00B7F22B0006012D0015C625005B
:1040700084CA2000B9FC07004F03BE004F02BE00F7
:1040800057FD0700809FBE00829FBE000002BE0059
:104090000203BE00B1FC0700009FBE000297BE00F5
:1040A00017EF2300462A250085F52600C4C12D0000
:1040B000AAFC0700C7F72300460E270035FB2600A1
:1040C000046E2F0046FD07003E02BE002E03BE0018
:1040D000A2FC070007FD23000600200005002000C9
:1040E000040020003EFD07004F03BE004F02BE004B
:1040F0009AFC0700809FBE00829FBE003E00BE006B
:104100002E01BE0007F4230096F92300E5FD2600EA
:104110009480230091FC0700C7FA2300E6182700CB
:1041200025142700341B25002DFD07003E02BE008C
:104130002E03BE0089FC070007FE230006002000B6
:10414000050020000400200025FD0700FFBB9700AC
:104150006FBB9700DFBA97004FBA97007DFC07004E
:104160000002BE000203BE004F01BE004F00BE00B1
:1041700000FB070007FE2300060020006022B800B5
:1041800017FD070061024600ACFE070002FE370083
:1041900003FF270022022000A2D588000001EB00C7
:1041A0006000B800FCFD37008001EB00F9FF37002C
:1041B00003FF2300F9FF370003F8A300F6FD3200E8
:1041C0008001EB00F5FF3700800078005002BE0050
:1041D0005003BE004439DE00F700B200F37F200038
:1041E00003016100090032000218E10016003A00E4
:1041F0008501720083017300838173000008200031
:1042000015003A00400020001300370085017200BD
:10421000830173008381730005003A0004A8BE0087
:1042200006A8BE00100020000B0037000201E900C4
:104230000402420085824A0006034B0087834B003C
:104240000748A300F9FF32000740A00004A8BE0001
:1042500006A8BE0020002000800098009200980070
:1042600000000600E48240001078A300070032003E
:10427000640240001178A3003400BE001401BE00A7
:10428000040032000330A700000006003500BE0025
:104290001501BE000330A00000000600889FBE008C
:1042A0008A9FBE008C9FBE000404BE000605BE00AF
:1042B000809FBE00829FBE00E8FD070004067800D4
:1042C0000800BE000A01BE00E4FD07008406780075
:1042D0004F03BE004F02BE008D4F76007FB09700A7
:1042E00013003300F0FF2F008B8F6B0006003B00A4
:1042F0000D0666000C00A7000A00370007F0A600B4
:10430000100020000A003700880F5200898F5A00E1
:104310008A0F5B008B8F5B000300390010002000C8
:1043200001003E000000200007F0A7000000EA00A6
:104330004F06BE004F05BE004F04BE000000060041
:10434000809FEB00D5FF07008F87E9000000E000A9
:1043500000000600881F7800000478005001BE00AD
:104360004000BE000400400085804800060149006E
:1043700087814900009CBE000294BE000400E10059
:104380000588E1000690E1000798E1000200310095
:10439000680044001008E8004F04780000000600A0
:1043A000F4874700889FBE008A9FBE008C9FBE0096
:1043B0008E1F78000205BE000004BE00D4B79F0027
:1043C000E5B79F00F6B79F0087BF9F000000EB0096
:1043D000C0B79F00B0B79F00A0B79F0090B79F00E5
:1043E00080B79F000D042000BFB097004FB097002A
:1043F000000140000000E0000F003D004F08DE001B
:1044000000007100C0B79F009E00070001003D0042
:1044100012002000A100070001003D001200200052
:10442000A6000700B1000700B60007000F0040001B
:10443000C8FF0700220037004F08DE0000067100A9
:10444000CCB79F008F00070001003D001200200044
:104450009200070001003D001200200097000700B5
:10446000A20007000FB297009FB297002FB39700EA
:10447000BFB39700A90007000000520081805A00D6
:1044800002015B0083815B0080B79F0091B79F00B2
:10449000A2B79F00B3B79F000007EB009F00070083
:1044A0000020E10001A8E10002B0E10003B8E10052
:1044B000010031001E0020000E005600C0B79F0012
:1044C0004FB297000400E000070035001000200004
:1044D000010020006011B800080470008984700099
:1044E0000A0571008B8571008D06E900BEFF3A0058
:1044F0000400E00003003D00820007000F004000C0
:1045000094FF07004FA897000000E00004003A0065
:104510000FB497009FB497002FB59700BFB59700D1
:10452000940007004F0778004F06BE004F05BE00FD
:104530004F04BE004F01B10000000600881F780044
:1045400018002000881F780095FF07008F87E9007A
:104550004F04780000000600801FEB0090FF07006A
:104560008F87E90000000600889FBE008A9FBE007A
:104570008C1F78006E00070007003D0073000700E5
:10458000E00F5B00E08F5B0007003D00320007009A
:104590000006EB00040037003400070002003D0075
:1045A0002A0007001C00200072000700E3FF07003C
:1045B0000203BE000002BE000C00E0000100320059
:1045C000220007000400BE000601BE004F0678006E
:1045D0004F05BE004F04BE0000000600889FBE00CD
:1045E0008A9FBE008C1F78005100070005003D0027
:1045F00056000700E00F5B00E08F5B0006003D0007
:10460000040037001900070003003D006000B800F7
:104610006011B8001000070056000700CEFF070029
:104620000203BE000002BE000C00E00001003200E8
:10463000060007000400BE000601BE004F06780019
:104640004F05BE004F04BE00000006006000B80029
:104650006011B80000003700040250008582580045
:104660000603590087835900000006000006EB008E
:10467000E00F5200E08F5A00E00F5B00E08F5B001C
:10468000000006000180400090B79F000001EB0091
:104690008FB097000100E0000000060002007000EB
:1046A00090B79F000180400080B79F000001EB00A1
:1046B000FFA897000100E000000006000200700063
:1046C00080B79F00018040006FAA9700CF20DE00D6
:1046D00001007000F0AF9F000402420025000700B7
:1046E0004F18DE000002720000000600E4AF9F00D9
:1046F0000804440089844C000A054D008B854D0058
:10470000000006003FB29700CFB297005FB397005A
:10471000EFB3970000FE2F00000006003FB09700A7
:10472000CFB097005FB19700EFB19700000006008F
:104730000205BE000004BE00E00F5000E08F5800EC
:10474000E00F5900E08F5900000006006000B8003B
:104750006011B80008045000898458000A05590007
:104760008B8559001C002000E00F5200E08F5A009A
:10477000000006000800BE000A01BE00000006009E
:1047800080007800F2CF2F000001FD002626B60041
:104790000001FD00003020002626B70020318000F7
:1047A000800878002031800090009800203180003F
:1047B000A000980020318000B00098000001FD00AA
:1047C0002626B6000001FD00003020002626B70096
:1047D000243180002531800026318000273180007F
:1047E00061409000874F5000E7FF3A00000006004C
:1047F00021042000914078008180FB00C508DE0084
:1048000092028000FF3FFC0000CEB3004260B70080
:104810009202880050052000303B8800A00A20004A
:10482000303B880027A6A80092028000FF3FFC00D2
:10483000C508DD0042C0BF007F406000014070003D
:1048400042E0B70092028800000006000001BE00AE
:1048500023C6BF000080FB004700DE000042780056
:104860000004E000070032000100E0000200320016
:1048700023E6A9000300370027C6BF000048A300B5
:10488000FDFF3A006F4061004200DD003162200010
:104890009140780032CCB30082C0600080C07000CC
:1048A0000100780023E6B7000404E00003003200B2
:1048B0000300E0000100320023E6A800000006002B
:1048C000800178000101780023C6BF000080FB0052
:1048D0004700DE00004278000004E00007003200DC
:1048E0000100E0000200320023E6A90003003700C7
:1048F00027C6BF000048A300FDFF3A00E1C06100E9
:10490000C608DD0023C6BF000064A100014070009E
:1049100023E6B7000404E000030032000200E000D8
:104920000100320023E6A80000000600103A8000D3
:104930000010A000720520006104200023742000F4
:104940008149780082497800804978002626EF0066
:104950002746E20005003D0027C6BF000058A3001F
:1049600001003A00A2FF070027E6A90027A6A90038
:1049700000000600889FBE008A9FBE0000047800E9
:10498000010578007040900091C5B300814F500040
:1049900059003E0068409000814F500056003E0094
:1049A00058409000E64F500053003E00C840900031
:1049B00040C2B30080CF50004F003E00384090000E
:1049C000F24F50004C003E000004E0004A0032006C
:1049D000A840900010C3B30080CF500046003E00B6
:1049E0000104E0004400320090C9B300984F100069
:1049F00041003E000A00E0000800320042C0BF0053
:104A00000080FB00C505DE0091028000FF3FFC0036
:104A100000CEB3004260B7009102880027C6BF00F5
:104A20004500DE00E10460000904E00001003A00F6
:104A30006FFF070027C6BF000080FB004700DE00B5
:104A4000804078000001EB000004E0000400320028
:104A500023C6BF000080FB004701DE0027E6A90057
:104A6000F0CF2F002626B600003020002626B70003
:104A7000180078002031880018009000203188004C
:104A800028009000203188003804900028318800E8
:104A90000104E0000800320027E6A8000200E00060
:104AA0000100320023E6A8000904E00005003200FE
:104AB0004FFF0700030037000904E00001003A003F
:104AC00027A6A900100020000A00E0000B00320019
:104AD00092028000FF3FFC00C558DD0042C0BF00CD
:104AE0007F4060000140700042E0B7009202880001
:104AF00010002000010037000000EB004F05BE0051
:104B00004F04BE0000000600800078003004E00082
:104B1000FEFF3A00010050000000E900000006001E
:104B20008001EB0002003700817178008301E8000A
:104B3000828F5100FCFF3A0000000600000378005D
:104B400080027800020278008001EB000800370044
:104B50000402E90063C07800805A78008301E8000D
:104B60000004E00002003A008000EB00060037007D
:104B7000828F5100F6FF3A00FBFF37000040EB0048
:104B800080F07A008100E800848F5000FBFF3A003B
:104B9000060078000000060080017800000178001F
:104BA00031407800005978000004E000FCFF3A0032
:104BB00003007800000006000C00FA00889FBE0089
:104BC00000047800CFB09700F0FF2700D0BF9F000F
:104BD0008004EB0099BF9F0088BF9F00A8BF9F0083
:104BE000200C2000B0BF9F007881570070805700D4
:104BF0003A0007000FB89700094878000FB89700EF
:104C000008045000080078004F04BE000080FA003D
:104C100000000600889FBE008A9FBE0080007800CA
:104C200000C2B300010037008900780081047800D9
:104C300039447800804F5400FBFF3200E94F5400A4
:104C4000F9FF3200D0C2B300804F540004003A0094
:104C5000194478008184E8001AC0B30006003700C8
:104C60000045EB00B0C2B300804F540002003A0090
:104C7000194478008184E8006022B8000A003700F7
:104C8000A2002000030020000400BE00FFF7070080
:104C90000B4144000281FB000300200000024100A0
:104CA00081824900394478000880FB000BFD2F0009
:104CB0000B004000E90F5000F1FF36000A04E0004D
:104CC0000200320060021200E0821A000400BE00FE
:104CD0004F05BE004F04BE0000000600FE874700DF
:104CE000889FBE008A9FBE008C9FBE008E1F7800EA
:104CF000F0B79F000107780082BF9F000000EB0023
:104D0000A0B79F009F0237008006EB0050C2B3009F
:104D100080CF5000090032000100FB00FFB0970077
:104D2000A3020700E10F400096023200AFB09700E7
:104D30008100E800A1B79F00920237009E407800F2
:104D4000D0C2B30080CF50000C00320007003C00FE
:104D50006D40500080CF50000A0032006B40400090
:104D600080CF50000E003A000800370000C3B300A7
:104D700080CF50000A003A00060037000D30A00036
:104D8000050037000D00A000030037000D10A00043
:104D9000010037000D20A0000E07E800E7FF3700F4
:104DA0000D18A300010032000D00A1000D38A30072
:104DB000010032000D20A1000100FB0002FD2F00C8
:104DC00002004000E90F50000E003E000002EB0020
:104DD000C4B79F0082017800CFB297006A28B9005B
:104DE0001E01FB000001410003014100C2B79F000A
:104DF0005E00FB0003004000E90F50000B003E0086
:104E0000F5FF37000006EB00CCB79F00A0C2B3004F
:104E100080CF500005003A000FB89700C00078001E
:104E200080BF9F00C1B79F000E07E8000001EB00A4
:104E3000B2B79F00E0C2B3009E4F100018003A00C6
:104E40000DE0A0008E00E80064405000914F10007B
:104E500002003200010778000C0037000FBA9700FB
:104E6000C402780084BF9F00B5B79F000E87E8009A
:104E70000B0037003FB697006A60B90000004100A0
:104E800003004000B0B79F000E07E8001E01FB00C2
:104E900003FD2F0003004100E90F5000F5FF36002D
:104EA000BE407800E1D79F00C0C6B30080CF50005D
:104EB000220032000F003C006940500080CF5000BB
:104EC0007700320004003C000104E00031023200AF
:104ED0006B4050000F00370040C6B30080CF500039
:104EE000930032006540400080CF50008B003A00B4
:104EF0008F00370030C7B30080CF50001A00320057
:104F000007003C006440500080CF50001100320088
:104F10000040E80080CF500080003A000F003700CA
:104F200050C7B30080CF5000800032006340400083
:104F300080CF500079003A000900370000002800B7
:104F40000D48A30001003A00000120008086760091
:104F5000D3FF37000D60A000750037000D50A00092
:104F60000D70A000720037008FB8970041007800E4
:104F700081BF9F00000478000000E00001003A00BB
:104F800068B521008004EB00010037008104E800CF
:104F900089007800088044001004E000FBFF3A001C
:104FA0003FB197000200E00003003200890F51007A
:104FB00001003100820478000002EB00E4AF9F00A2
:104FC000CFB29700898F520002003600098052004C
:104FD000E0AF9F004368DE00E10660001B003A007E
:104FE0000D06780009003700FFB09700000220008E
:104FF000EF010700E10F4000030032002FB09700DF
:105000000000E800A0B79F000C06E800EFA897009A
:10501000810F5600F4FF3A000081EB00E2AF9F00E1
:105020000A003700880078003100FB000104780096
:10503000FFB09700DE010700E10F400003003200DF
:105040002FB297000402E800A4B79F000900E9000E
:1050500080047800E10F4000F2FF3A000006EB0008
:105060000D00E0000A003A00C6013700FFB09700CB
:1050700000022000CE010700E10F400003003200D3
:10508000AFB297008502E800A5B79F000C06E800C4
:105090006FA89700800F5600F4FF3A00B90137005F
:1050A0008FB897004100780081BF9F00CF80DE005D
:1050B00001017800820178000205BE000004BE00F4
:1050C0000203BE000002BE004822DE00482EDD00C2
:1050D00004027600E4D79F000D48A3000A003200C6
:1050E0000404E00008003200E14F420006003200F4
:1050F00071FD2F0001804700044878001840980097
:105100002900200002003700F0D79F00190020007E
:1051100072FD2F0002844700A1FF370064FD2F00BD
:1051200004844700190020009DFF37000D0CB300D8
:105130000D007800000CB20028003A000D00E000DD
:1051400005003D008FBA97004505BE004504BE002E
:1051500085BF9F00140037000D48A3000B003200EC
:105160000FBE97004C00BE008CBF9F004F89DE0031
:10517000CF91DE000002BE000203780082037800B7
:105180000605BE000404BE00070037008FB8970074
:105190004100780081BF9F0000047800CFC4DE008A
:1051A000090578008A057800E00F5400E08F5C0064
:1051B000E00F5D00E08F5D001F003D003D00B3008B
:1051C0006000B8006011B8000804500089845800DD
:1051D0000A0559008B855900170037000D00E000C3
:1051E00005003D000FB997004205BE004204BE0015
:1051F00082BF9F00100037000D48A3000700320057
:105200000FBA97004400BE0084BF9F006011B80031
:105210000205BE000004BE00070037008FBA9700E9
:105220004500780085BF9F00000478000900200039
:105230000A0020000B0020003FB697000C00E000A1
:1052400007003A00E00F5400E08F5C00E00F5D00C3
:10525000E08F5D0002003A0010002000B0B79F0010
:105260008D007800010CB200E1B79F00000420001F
:10527000808F50003000320003003C000100E0004D
:105280000800320040003700000820006FB197008E
:10529000800F510014003200000C2000800F5100DC
:1052A00039003A0014C0B30065AB21000B00370091
:1052B0000400FB004300DD00050040005001BE007B
:1052C0004000BE000040E10001C8E10002D0E10062
:1052D00003D8E1002B0039000442E800F44F5200EB
:1052E000F3FF3A00270037000001200001002000F2
:1052F0006011B80014C0B3000040E10001C8E10033
:1053000002D0E10003D8E1001E0039004500200072
:105310000000D0008180D2000281D2008381D200BF
:105320008502E900FAFF3A000442E800F04F52001B
:10533000F1FF3A0013003700800020000100200038
:105340006011B80014C0B3000040E10001C8E100E2
:1053500002D0E10003D8E1000A0039003C0020003F
:105360000000D0008180D2000281D2008381D2006F
:105370000C06E900FAFF3A000442E800F54F52003B
:10538000F1FF3A00E4D79F00EFD097000100FB0047
:105390003FB19700820F500002003D00E2D79F000E
:1053A000040037003FB29700800F520001003D001B
:1053B000B0B79F00CFB297000500E00004003200B4
:1053C00063806600020032008502E900C5B79F00D5
:1053D0000DE8A3000B0032004FB697003FB09700D6
:1053E000800F560003003C008000EB00C1B79F0017
:1053F000040037004FB197003FB2970004015100FD
:10540000C2B79F00EFD297000500FB000006EB003B
:10541000DCAF9F00CFB09700808F500002003400B7
:1054200000805000D0AF9F000D28A300370032004D
:10543000E18066000D18A3000C003200D0022000AD
:105440000100E00001003A000080E900FFB0970091
:10545000D7000700E10F40000E0032002FB1970087
:105460000201E800A2B79F000A0037000100E00037
:1054700008003200FFB0970000022000CC000700B7
:10548000E10F4000030032002FB297000402E80051
:10549000A4B79F00DFAA97000500E0000F003200CC
:1054A0000006EB00FFB0970000032000C0000700DB
:1054B000E10F4000030032002FB097000000E80029
:1054C000A0B79F000C06E800DFA89700810F5600E8
:1054D000F4FF3A000001EB00D2AF9F003FB297000B
:1054E000C320DD00E0AA21008080400091B79F002A
:1054F0004220DD006400500080B79F006320B900A7
:10550000F0AF9F006306500084003700DFAA9700C9
:105510000500E00011003200688066000F003A00CC
:1055200000067800FFB0970000022000A0000700EE
:10553000E10F4000030032002FB097000000E800A8
:10554000A0B79F000C06E800DFA89700810F560067
:10555000F4FF3A000001EB00D2AF9F00E18066004B
:105560000D18A3000C003200D00220000100E00062
:1055700001003A000080E900FFB097008C000700AE
:10558000E10F4000D5FF32002FB297000402E8007F
:10559000A4B79F00D1FF37000100E000CFFF320029
:1055A000FFB097000002200081000700E10F4000DB
:1055B000CAFF3200AFB297008502E800A5B79F008E
:1055C000C6FF370000042000EFB09700808F500026
:1055D0003100320003003C000100E000080032000E
:1055E0003E003700000820006FB19700800F510087
:1055F00011003200000C2000800F510037003A00EB
:105600001FB097003002BE002003BE000800BE009D
:105610000A01BE00C9FB0700A4002000050020000D
:105620006033B800CCFB070004C3B3000442400061
:10563000E4D79F0029003700D5B52100D5B79F00DA
:105640000D58A30002003A00E0B62100D0B79F0039
:1056500014002000050020006033B8008FB09700D0
:105660008100E900050033000402D0008582D200E9
:105670000683D2008783D200F9FF37000800BE00FE
:105680000A01BE00ADFB07006F0060005FB197002C
:105690006240780010003700140020000500200050
:1056A0006033B8000C0078000000E900050033000A
:1056B0000402D0008582D2000683D2008783D20004
:1056C000F9FF37000800BE000A01BE009BFB07007F
:1056D000674060000043B000E0D79F00EFD0970024
:1056E0000100FB00FFB0970031000700E10F400010
:1056F000030032002FB197000201E800A2B79F001B
:105700001FB297006802520094B79F008FB29700B3
:10571000E482520085B79F0063065600D0FF2F0039
:105720003FB197000090B9007FAA970000004200A7
:1057300063005000800F5600A2FF3A000D38A3000E
:1057400010003200DFAA97000500E0000D003400D1
:105750000006EB00FFB097000002200014000700D5
:10576000E10F4000030032002FB097000000E80076
:10577000A0B79F000C06E800DFA89700810F560035
:10578000F4FF3A00BE407800E1D79F000104E0003A
:105790005DFD3A002FB097004F0778004F06BE001E
:1057A0004F05BE004F04BE00EF01B100000006002F
:1057B000889FBE000001780001047800B1009000CD
:1057C0000118A3003D0032000198A30003003A0035
:1057D000180090000000E00038003A000190A0009E
:1057E0003104980082047800F90FB200180090008C
:1057F0000000E00002003A0028009000000C780051
:10580000EA8F540006003A00380090000078A300A8
:1058100003003A0088007800D0002000E4FF070071
:105820009800900058009000808F50000B003200CC
:105830000100E8001004980018007800095878006A
:10584000000C780011C0B300A0BA21000148780014
:10585000EA8F5400060032001900370088007800F3
:105860000940780019000700800478001400370010
:10587000380090000088A300110032001801900049
:10588000A800900048009000C9F40700980090001C
:10589000810F500004003200380090000003B30074
:1058A000300498008084EB000000EB0010049800A6
:1058B00028009000000C7800010037008084EB0085
:1058C000090078004F04BE00000006000200FA0044
:1058D000889FBE00A0FF9F0001047800B1009000E7
:1058E000810478000904B200020032000000FB00CD
:1058F000360037000118A30005003A000103B30089
:1059000031049800190498000080EB002F00370044
:10591000580090000000E00006003A0048009000A7
:1059200012002000E6805700A1F407001904980037
:1059300024003700280090000000E00008003A0032
:1059400060BA210020049800000C7800200020009C
:1059500050049800100498000130A0003104980011
:1059600018019000A80090004800900090F40700F3
:1059700028009000000C78000080EB0010049800D4
:1059800018007800AFF8970001587800000C7800F4
:105990002FF89700EA4F50000A003A0038009000B4
:1059A0000088A3000700320018019000A8009000B2
:1059B000480090007EF4070019049800A8009000A9
:1059C000010C7800AFF897000100FB004F04BE0007
:1059D0000080FA0000000600120100000002000032
:1059E0000000000000080000D8040000540000007F
:1059F0000100000001020000000100000902000097
:105A0000400000000201000000C000003209000058
:105A10000400000000020000080600005000000022
:105A2000070500008102000040000000010700009F
:105A30000501000002400000000100000904000010
:105A40000100000002030000000000000009000047
:105A50002111000001000000012200001D000000D3
:105A6000070500008203000040000000010700005D
:105A700005020000034000000001000006000000D5
:105A8000FF09000001A10000011900000129000028
:105A90004015000000260000FF000000750800000F
:105AA000954000008100000019010000294000001D
:105AB00091000000C0000000040300000904000081
:105AC00050030000550000004D0000006100000080
:105AD0007300000073000000200000004C00000074
:105AE0006F00000077000000650000006C000000FF
:105AF0006C000000200000002D00000020000000CD
:105B0000450000006E00000067000000610000001A
:105B100067000000690000006E00000067000000E0
:105B200020000000430000006F0000006D00000036
:105B300070000000750000007400000069000000A3
:105B40006E00000067000000200000004700000019
:105B5000720000006F00000075000000700000007F
:105B60002C03000069000000530000004500000005
:105B70004E0000005300000045000000200000001F
:105B80007500000050000000490000004E000000B9
:105B9000500000006F000000690000006E0000006F
:105BA00074000000200000005600000031000000DA
:105BB0002E00000030000000FEAC00005CAD0000D4
:105BC00060AD0000B0AD00000080000004020000E5
:105BD0002000000000000000554D00004C20000097
:105BE00045430000472000004D6100007373000032
:105BF00020530000746F00007261000067650000B0
:105C00002020000020200000303000003031000053
:105C100025300000327800002D25000030320000D1
:105C2000782D0000253000003278000000250000AB
:105C300030320000785F000025300000327800002C
:105C40005F25000030320000782E000063730000F2
:105C500076000000770000002E2E000000540000A7
:105C6000696D0000652C0000204500006C6100009B
:105C70007073000065640000546900006D650000E9
:105C80002C20000000540000656D000070650000CD
:105C90007261000074750000726500002C20000025
:105CA000507200006573000073750000726500009B
:105CB0002C200000416C0000746900007475000025
:105CC000646500002C2000000041000063630000B8
:105CD000656C0000582C0000204100006363000048
:105CE000656C0000592C0000204100006363000037
:105CF000656C00005A2C0000204100006363000026
:105D0000656C00004D610000672C0000204C000015
:105D100069670000687400000D0A0000007200004E
:105D2000006300006F6E000066690000672E0000CF
:105D3000747800007400000000950000000000006E
:105D40000000000001F90000000000000000000059
:105D500008870000040000000000000009AF0000F8
:105D600000000000010000000A1B0000000000000D
:105D7000010000000CC30000010000000000000052
:105D80000DAF0000020000000000000010FF000046
:105D9000000000000000000011FF000000000000F3
:105DA0000100000012FF00000000000001000000E0
:105DB00018FF0000000000000100000019FF0000B3
:105DC000000000000100000020FF000000000000B3
:105DD0000000000021FF00000000000000000000A3
:105DE00026DF000001000000000000003773000003
:105DF00000000000000000003A2500000400000040
:105E0000000000003B250000000000000000000032
:105E100029FF0000040000000000000017FF000040
:105E200000000000000000002E0000002E00000016
:105E3000000000002E2E0000000000000400FA0008
:105E40000000EB00000F7800060037009E0078008D
:105E5000808720008080400010C0B3008048780018
:105E60001E0FE800100020009E0F1000F7FF340006
:105E70000040EB0096FAB7000040EB008CFAB70048
:105E80000080EB008080EB0040D4880051D4880073
:105E90000080EB008080EB0080D4880091D48800E3
:105EA0008C62070040F52000E40707000004E000D2
:105EB0003C003A00C1D4800040F520008008780002
:105EC000C1D480000000EB00D0009800C1D4800055
:105ED0000000EB00E0009800C2D480006000B80031
:105EE0007001980001099800C2D480006000B800D9
:105EF0001009980021099800C1D48000C0C5B300E2
:105F0000C058980010002000000F780007003700EC
:105F1000C1D480001E0078007C0040008100400059
:105F200000C2B300804878001E0FE800A0002000E7
:105F30009E0F1000F6FF3400C1D480000000EB007B
:105F4000F0109800C1D48000000120009018980043
:105F5000C2D48000A0748000B17480002019980021
:105F600031199800C2D48000A0748000B174800000
:105F70004019980051199800C1D4800010002000E9
:105F8000C0109800C1D480000000EB00E010980021
:105F90000040EB0098EEB7001000200010079800BA
:105FA000020037000000EB00100798001E00900070
:105FB0000080FA00000006005E00FA00881F7800EA
:105FC000202F9800312F980002DF980013DF9800EF
:105FD0002E2890007010900010179800B00020003C
:105FE000600F9800E0C72000300F98003E28900016
:105FF000D0109000210F98000000EB00000F9800D7
:106000000000EB00700798000000EB0050079800BC
:106010000000EB00200798000040EB0010479800BC
:106020000040EB00004F78003E2890006010900088
:10603000D07B8800D07B80000000E0001700320099
:10604000D07B8000D2002000110009000280D8001F
:106050008000FD00004F7800D07B8000D20020003F
:10606000110009000280D800005F98001E04E000C3
:1060700003003A00D07B8000EC0F500003003E008C
:106080000E5890000040E800005F98000E58900005
:1060900001C4B30001407000104798002E28900002
:1060A000B0189000201890002E29900040199800F8
:1060B000511998003E2890001019900002007800B5
:1060C0000080EA008180EA00700F98001E109000A6
:1060D0000000E0000A003A00210220008E8040000B
:1060E00012C0B3002E289000681707000000E000DF
:1060F00010003A00B0012000600F98000D0037003A
